:020000040000fa
:080000000002040000000000f2
:020000040000fa
:0400080034040000bc
:020000040000fa
:04000c00f8030000f5
:020000040000fa
:04001000fe030000eb
:020000040000fa
:0400140004040000e0
:020000040000fa
:040018000a040000d6
:020000040000fa
:04001c0010040000cc
:020000040000fa
:0400200034040000a4
:020000040000fa
:0400240034040000a0
:020000040000fa
:04002800340400009c
:020000040000fa
:04002c003404000098
:020000040000fa
:040030003404000094
:020000040000fa
:04003400ca030000fb
:020000040000fa
:04003800aa03000017
:020000040000fa
:04003c003404000088
:020000040000fa
:040040003404000084
:020000040000fa
:040044003404000080
:020000040000fa
:04004800340400007c
:020000040000fa
:04004c003404000078
:020000040000fa
:040050003404000074
:020000040000fa
:040054003404000070
:020000040000fa
:04005800340400006c
:020000040000fa
:04005c003404000068
:020000040000fa
:04006000b2030000e7
:020000040000fa
:040064003404000060
:020000040000fa
:04006800340400005c
:020000040000fa
:04006c003404000058
:020000040000fa
:040070003404000054
:020000040000fa
:040074003404000050
:020000040000fa
:04007800340400004c
:020000040000fa
:04007c003404000048
:020000040000fa
:040080003404000044
:020000040000fa
:040084003404000040
:020000040000fa
:04008800ba030000b7
:020000040000fa
:04008c003404000038
:020000040000fa
:040090003404000034
:020000040000fa
:040094003404000030
:020000040000fa
:04009800340400002c
:020000040000fa
:04009c003404000028
:020000040000fa
:0400a0003404000024
:020000040000fa
:0400a4003404000020
:020000040000fa
:0400a800340400001c
:020000040000fa
:0400ac003404000018
:020000040000fa
:0400b0003404000014
:020000040000fa
:0400b400c80200007e
:020000040000fa
:0400b800c20300007f
:020000040000fa
:0400bc003404000008
:020000040000fa
:0400c0003404000004
:020000040000fa
:0400c4003404000000
:020000040000fa
:0400c80034040000fc
:020000040000fa
:0400cc0034040000f8
:020000040000fa
:0400d00034040000f4
:020000040000fa
:0400d40034040000f0
:020000040000fa
:0400d80034040000ec
:020000040000fa
:0400dc0034040000e8
:020000040000fa
:0400e00034040000e4
:020000040000fa
:0400e40034040000e0
:020000040000fa
:0400e80034040000dc
:020000040000fa
:0400ec0034040000d8
:020000040000fa
:0400f00034040000d4
:020000040000fa
:0400f40034040000d0
:020000040000fa
:0400f80034040000cc
:020000040000fa
:0400fc0034040000c8
:020000040000fa
:0401000034040000c3
:020000040000fa
:0401040034040000bf
:020000040000fa
:04010800660300008a
:020000040000fa
:04010c0034040000b7
:020000040000fa
:0401100034040000b3
:020000040000fa
:0401140034040000af
:020000040000fa
:0401180034040000ab
:020000040000fa
:04011c0034040000a7
:020000040000fa
:0401200034040000a3
:020000040000fa
:04012400340400009f
:020000040000fa
:04012800340400009b
:020000040000fa
:04012c003404000097
:020000040000fa
:040130003404000093
:020000040000fa
:04013400340400008f
:020000040000fa
:04013800340400008b
:020000040000fa
:04013c003404000087
:020000040000fa
:040140003404000083
:020000040000fa
:04014400340400007f
:020000040000fa
:0402080034040000ba
:020000040000fa
:04020c0016040000d4
:020000040000fa
:040210001c040000ca
:020000040000fa
:0402140022040000c0
:020000040000fa
:0402180028040000b6
:020000040000fa
:04021c002e040000ac
:020000040000fa
:0402200034040000a2
:020000040000fa
:04022400340400009e
:020000040000fa
:04022800340400009a
:020000040000fa
:04022c003404000096
:020000040000fa
:040230003404000092
:020000040000fa
:04023400340400008e
:020000040000fa
:04023800340400008a
:020000040000fa
:04023c003404000086
:020000040000fa
:040240003404000082
:020000040000fa
:04024400340400007e
:020000040000fa
:04024800340400007a
:020000040000fa
:04024c003404000076
:020000040000fa
:040250003404000072
:020000040000fa
:04025400340400006e
:020000040000fa
:04025800340400006a
:020000040000fa
:04025c003404000066
:020000040000fa
:040260003404000062
:020000040000fa
:04026400340400005e
:020000040000fa
:04026800340400005a
:020000040000fa
:04026c003404000056
:020000040000fa
:040270003404000052
:020000040000fa
:04027400340400004e
:020000040000fa
:04027800340400004a
:020000040000fa
:04027c003404000046
:020000040000fa
:040280003404000042
:020000040000fa
:04028400340400003e
:020000040000fa
:04028800340400003a
:020000040000fa
:04028c003404000036
:020000040000fa
:040290003404000032
:020000040000fa
:04029400340400002e
:020000040000fa
:04029800340400002a
:020000040000fa
:04029c003404000026
:020000040000fa
:0402a0003404000022
:020000040000fa
:0402a400340400001e
:020000040000fa
:0402a800340400001a
:020000040000fa
:0402ac003404000016
:020000040000fa
:0402b0003404000012
:020000040000fa
:0402b400340400000e
:020000040000fa
:0402b800340400000a
:020000040000fa
:0402bc003404000006
:020000040000fa
:0402c0003404000002
:020000040000fa
:0402c40034040000fe
:020000040000fa
:0402c80034040000fa
:020000040000fa
:0402cc0034040000f6
:020000040000fa
:0402d00034040000f2
:020000040000fa
:0402d40034040000ee
:020000040000fa
:0402d80034040000ea
:020000040000fa
:0402dc0034040000e6
:020000040000fa
:0402e00034040000e2
:020000040000fa
:0402e40034040000de
:020000040000fa
:0402e80034040000da
:020000040000fa
:0402ec0034040000d6
:020000040000fa
:0402f00034040000d2
:020000040000fa
:0402f40034040000ce
:020000040000fa
:0402f80034040000ca
:020000040000fa
:0402fc0034040000c6
:020000040000fa
:0403000034040000c1
:020000040000fa
:0403040034040000bd
:020000040000fa
:0403080034040000b9
:020000040000fa
:04030c0034040000b5
:020000040000fa
:0403100034040000b1
:020000040000fa
:0403140034040000ad
:020000040000fa
:0403180034040000a9
:020000040000fa
:04031c0034040000a5
:020000040000fa
:0403200034040000a1
:020000040000fa
:04032400340400009d
:020000040000fa
:040328003404000099
:020000040000fa
:04032c003404000095
:020000040000fa
:040330003404000091
:020000040000fa
:04033400340400008d
:020000040000fa
:040338003404000089
:020000040000fa
:04033c003404000085
:020000040000fa
:040340003404000081
:020000040000fa
:04034400340400007d
:020000040000fa
:100400008f8220000ef727000e01880000000000f8
:10041000000020000000e000020032000001200087
:100420002002880014000700110107000000e0000e
:1004300003003a0080502100010020000200370034
:100440000000200001002000810f70000100320038
:1004500014000700000020000000e000020032004d
:1004600000000200000000003a040200000000004a
:100470000040da000000fe004440a9000000200017
:100480000000e0000300320000002000a00188000e
:100490004440a800000006008a1f78008b1f7800e7
:1004a0000000060091018800800478000000eb0045
:1004b0001a003700e284440032a0b4009905ba0063
:1004c000e284440032a0b4009906ba00e2844400f9
:1004d00032a0b4000006eb00476fde00fd07b2005b
:1004e000636ce10003003a00ebff07000000eb0043
:1004f0000a003700606ce10004003a00005deb0088
:100500008b05e900fdff3e00040037006168e10053
:10051000010032000086eb000b00070019c7ba008b
:100520001905ba000e04e00003003a000a00e000da
:10053000e0ff3a0000000600fe07b2009e018800be
:100540008a047800f5ff3700395dba008b05e900b1
:100550000c003200295dba008b05e900080032006a
:100560000c00e00003003a00e284440032a0b40032
:10057000f5ff370019ddba008b05e900faff3a00f4
:100580008904e800e184440032a0b40000000600c1
:100590003600f800809fbe00829fbe00849fbe0090
:1005a000869fbe000000fa008860a90050208000ed
:1005b000610060000000e000010032000a04a900b0
:1005c00050208000620060000000e000380032002f
:1005d00000218000620060000000e00004003200a2
:1005e0007080200011c0b300014878002024a900c9
:1005f00040802000d500070042408000534080002a
:10060000401f200001002000800f5100818f590001
:1006100019003a00c0802000104078000080fb00e4
:10062000e10f500009003200e30f50000d003200ce
:100630000000e0001c003a00c202a9000000000017
:10064000c222a9000000000018003700c202a80062
:1006500000000000c222a90000000000000000000d
:1006600012003700c202a80000000000c222a80049
:10067000000000000d003700424080005340800021
:100680006022200001002000800f5100818f59005e
:1006900006003a00c0802000104078000080fb0077
:1006a0000040880001003700000000000a24a90073
:1006b0000080fa004f03be004f02be004f01be0093
:1006c0004f00be003600f900004006003600f8007a
:1006d000809fbe00829fbe00849fbe00869fbe009a
:1006e0000000fa008b00a900502880006100600023
:1006f0000000e000010032000a05a9005028800037
:10070000620060000000e0000b0032000029800061
:10071000620060000000e0000400320090812000d0
:1007200011c0b300014878002025a9006081200095
:100730008a0107000a25a9000080fa004f03be00c5
:100740004f02be004f01be004f00be003600f90050
:10075000004006000000fa008480a9000080fa0032
:10076000004006000000fa0085c0a9000080fa00e1
:10077000004006000000fa008700a9000080fa008f
:10078000004006000000fa008880a9000080fa00fe
:10079000004006003600f800809fbe00829fbe0029
:1007a000849fbe00869fbe000000fa0011408000ba
:1007b00050272000808f500002003400a50207005f
:1007c0000228ef00104080000000e8001040880080
:1007d0008460a9000080fa004f03be004f02be00f3
:1007e0004f01be004f00be003600f9000040060079
:1007f0000000fa008020a900ffff37000000fa0087
:100800008060a900ffff37000000fa008040a900c7
:10081000ffff37000000fa008080a900ffff3700cb
:100820000000fa0080a0a900ffff37000000fa00d6
:100830008020a900ffff37000000fa008060a900b7
:10084000ffff37000000fa008040a900ffff3700db
:100850000000fa008080a900ffff37000000fa00c6
:1008600080a0a900ffff37000040da000000fe0072
:04087000000005007f
:020000040000fa
:100874000000fa00440207003b0207006c02070074
:1008840054080700a207070065070700730707005d
:100894009860a8000c04a8000c24a8001208070003
:1008a400d6070700e30707009b00a8000c05a80073
:1008b4000c25a800040007003064a80012000700fb
:1008c4003065a800ffff37000000fa000002eb00cb
:1008d40011002000f2ff2f00e3ff21000000eb00d5
:1008e400f403070045442400343323002322220068
:1008f40012112100810020000000eb00ae0407006b
:100904000080fa00000006000000fa000002eb007c
:1009140011002000f2ff2f00e3ff21000000eb0094
:100924003d060700d5dd2d00c4cc2c00b3bb2b0045
:10093400a2aa2a00810020000000eb00f7060700ad
:100944000080fa00000006000a00fa004007980040
:100954000000eb00000f78000000eb001007980087
:100964006000b80020079800310798004e009000fe
:10097400304090000080fb00c400dd0000f8270038
:100984000080400010007800610f60004e0090006d
:10099400304090000080fb00c400dd0000f8270018
:1009a400008040001000780062006000100798008a
:1009b4001e0078000000e00012003a004e00900093
:1009c400304090000080fb00c400dd0000f82700e8
:1009d4000080400090007800c0ff2100008060008b
:1009e4004200de008000eb004e01900020019800e0
:1009f400310198004e00900041c0b300214098009e
:100a0400610037004e009000304090000080fb00f1
:100a1400c400dd0000f827000080400010007800ca
:100a24006101b800c0ff210001002000020278002b
:100a3400030178008001780001007800030262005d
:100a4400000061008000eb00c000dd000000200019
:100a54000001be006120b8000001710081817100b5
:100a640022079800330798002e009000be009000e3
:100a7400c000dd00000020004e019000200198001d
:100a8400310198004e009000304090000080fb003f
:100a94004400dd008080e80000f82700008040006a
:100aa400100078006101b800f0ff20000100200070
:100ab40002027800030178008001780001007800c8
:100ac40003026200000061008000eb00c000dd0052
:100ad400000020000001be006120b8000001710088
:100ae4008181710022079800330798004e0090001e
:100af40020019000b00190002e029000be029000f0
:100b04004628dd00ca20de00810070004620dd009a
:100b140002004000838048004e01900020019800ac
:100b2400310198004e009000304090000080fb009e
:100b34004400dd00e400400000f82700008040008d
:100b4400100078004a00de008000eb0020079800c7
:100b5400310798004e00900020019000b0019000f1
:100b64002e009000be0090000200400083804800e8
:100b74004e01900020019800310198004e00900031
:100b840031c0b300214098001e009000e10f5000d6
:100b940004003a004e00900021c0b30011409800b8
:100ba4006b0037004e00900011c0b3001140980054
:100bb4004e009000304090000080fb004400dd00b7
:100bc400e600400000f82700008040001000780094
:100bd400804078004e009000014898004e0090003c
:100be400304090000080fb004400dd00e60040003f
:100bf40000f8270000804000100078004800de0064
:100c0400804078004e009000114898004e009000fb
:100c1400304090000080fb004400dd00e80040000c
:100c240000f8270000804000100078008040780021
:100c34004e009000214898004e00900030409000f3
:100c44000080fb004400dd00e800400000f82700bd
:100c540000804000100078004800de0080407800ea
:100c64004e009000314898004e00900030409000b3
:100c74000080fb004400dd00ea00400000f827008b
:100c84000080400010007800804078004e00900002
:100c9400414898004e009000304090000080fb00d6
:100ca4004400dd00ea00400000f827000080400016
:100cb400100078004800de00804078004e0090006c
:100cc400514898004e009000304090000080fb0096
:100cd4004400dd00ec00400000f8270000804000e4
:100ce40010007800804078004e0090006148980021
:100cf4004e009000304090000080fb004400dd0076
:100d0400ec00400000f8270000804000100078004c
:100d14004800de00804078004e0090007148980042
:100d24004e009000304090000080fb004400dd0045
:100d3400e400400000f82700008040001000780024
:100d440000407800ef4060004e0090000150980091
:100d54000080fa00000006000a00fa00400798002c
:100d64000000eb00000f78000000eb001007980073
:100d74006000b80020079800310798004e009000ea
:100d8400304090000080fb00c400dd0000fc270020
:100d94000080400010007800610f60004e00900059
:100da400304090000080fb00c400dd0000fc270000
:100db4000080400010007800620060001007980076
:100dc4001e0078000000e00012003a004e0090007f
:100dd400304090000080fb00c400dd0000fc2700d0
:100de4000080400090007800c0ff21000080600077
:100df4004200de008000eb004e01900020019800cc
:100e0400310198004e00900041c0b3002140980089
:100e1400610037004e009000304090000080fb00dd
:100e2400c400dd0000fc27000080400010007800b2
:100e34006101b800c0ff2100010020000202780017
:100e44000301780080017800010078000302620049
:100e5400000061008000eb00c000dd000000200005
:100e64000001be006120b8000001710081817100a1
:100e740022079800330798002e009000be009000cf
:100e8400c000dd00000020004e0190002001980009
:100e9400310198004e009000304090000080fb002b
:100ea4004400dd008080e80000fc27000080400052
:100eb400100078006101b800f0ff2000010020005c
:100ec40002027800030178008001780001007800b4
:100ed40003026200000061008000eb00c000dd003e
:100ee400000020000001be006120b8000001710074
:100ef4008181710022079800330798004e0090000a
:100f040020019000b00190002e029000be029000db
:100f14004628dd00ca20de00810070004620dd0086
:100f240002004000838048004e0190002001980098
:100f3400310198004e009000304090000080fb008a
:100f44004400dd00e400400000fc27000080400075
:100f5400100078004a00de008000eb0020079800b3
:100f6400310798004e00900020019000b0019000dd
:100f74002e009000be0090000200400083804800d4
:100f84004e01900020019800310198004e0090001d
:100f940031c0b300214098001e009000e10f5000c2
:100fa40004003a004e00900021c0b30011409800a4
:100fb4006b0037004e00900011c0b3001140980040
:100fc4004e009000304090000080fb004400dd00a3
:100fd400e600400000fc270000804000100078007c
:100fe400804078004e009000014898004e00900028
:100ff400304090000080fb004400dd00e60040002b
:1010040000fc270000804000100078004800de004b
:10101400804078004e009000114898004e009000e7
:10102400304090000080fb004400dd00e8004000f8
:1010340000fc270000804000100078008040780009
:101044004e009000214898004e00900030409000df
:101054000080fb004400dd00e800400000fc2700a5
:1010640000804000100078004800de0080407800d6
:101074004e009000314898004e009000304090009f
:101084000080fb004400dd00ea00400000fc270073
:101094000080400010007800804078004e009000ee
:1010a400414898004e009000304090000080fb00c2
:1010b4004400dd00ea00400000fc270000804000fe
:1010c400100078004800de00804078004e00900058
:1010d400514898004e009000304090000080fb0082
:1010e4004400dd00ec00400000fc270000804000cc
:1010f40010007800804078004e009000614898000d
:101104004e009000304090000080fb004400dd0061
:10111400ec00400000fc2700008040001000780034
:101124004800de00804078004e009000714898002e
:101134004e009000304090000080fb004400dd0031
:10114400e400400000fc270000804000100078000c
:1011540000407800ef4060004e009000015098007d
:101164000080fa00000006000000fa008420ef006e
:101174008620ef008820ef008a20ef008c20ef000b
:101184000080fa00000006000000fa00600220005f
:10119400303a8800213a8000f0f32f00008060008c
:1011a400203a8800213a800000fe2f000080600071
:1011b400203a88004827ef0040a7a9003200200009
:1011c40080072000a10920003374200080497800a2
:1011d40081497800824978001200200060042000d0
:1011e400710520002374200080497800814978002b
:1011f4008249780000000000113a800000002700b6
:101204008080600000002300808f5000faff3a00c5
:1012140000000000113a80000002200000806000fd
:101224000000e000fbff32000080fa00000006002e
:101234000000fa00c002a900c022a900c042a9000f
:10124400c062a900c082a9000080fa000000060064
:101254000000fa0000408000e20f50001b00320042
:10126400e20f500005003c000000e0000a003200dc
:10127400e10f50000b00320035003700e40f50003e
:101284001f003200e40f500013003500e50f50003a
:10129400250032002e003700c242a90000000000e1
:1012a4002b00370010168000640060000000e0008e
:1012b40003003a00c242a8000000000024003700e6
:1012c400c242a9000000000021003700c242a90068
:1012d400000000001e00370010168000640060004b
:1012e4000000e00003003a00c242a8000000000031
:1012f40017003700c242a9000000000014003700a4
:1013040010168000640060000000e00003003a0052
:10131400c242a800000000000d003700c242a9002c
:10132400000000000a00370010168000640060000e
:101334000000e00003003a00c242a80000000000e0
:1013440003003700c242a9000000000000000000b2
:101354000080fa00000006002000fa00889fbe000a
:10136400200f9800320f9800430f9800510f9800f7
:10137400640f9800750f98006000b800008fbe00dd
:101384006000b80020079800310798006000b8009a
:1013940040079800510798000004a8002e08900008
:1013a400000040000000400080007800004420005d
:1013b40000804000600798002e0890004280de0004
:1013c40000004000800078000042200000804000bf
:1013d400700798002e0890004380de000000400053
:1013e400800078008041200000804000000f9800b9
:1013f40040412000100f98005e089000e10f50005b
:1014040049003a003e099000ce099000f0ff2f00f9
:1014140001002000020278000301780080017800b6
:101424000100780003026200000061008000eb000c
:10143400c000dd00000020000001be006120b800f3
:101444000001710081817100220798003307980020
:101454003e089000ce089000408cde00cf8cde0069
:101464000801be00300020000100200002027800c4
:101474000301780080017800010078000302620013
:10148400000061008000eb00c000dd0000002000cf
:101494000001be006120b80000017100818171006b
:1014a40042079800530798003e089000ce08900029
:1014b400428bde00cf8bde000601be00f07f2000f1
:1014c4000100200002027800830178000001780006
:1014d4000100780002016200008061008000eb00de
:1014e400c000dd0000002000008fbe006110b800c5
:1014f4001e1f70001e9770001e007800c500dd00de
:101504004e00900000804000e80040006e00900013
:10151400010878006e0090000080e800ae009000a2
:1015240001087800190037003e099000ce099000a8
:10153400f07f20000100200002027800830178007f
:10154400000178000100780002016200008061005f
:101554008000eb00c000dd0000002000008fbe0012
:101564006110b8001e1f70001e9770001e007800e6
:10157400c500dd006e009000010878006e00900048
:101584000080e8008000eb00010878007e009000f5
:10159400900078002e089000630060004200dd0097
:1015a400f20020000010dd000080ea00808060006e
:1015b4007e009000010878002e089000630060000f
:1015c4004200dd00ee0890008008dd007e009000ff
:1015d40010007800810070007e00900001087800ff
:1015e4000e089000900078002e08900067006000bc
:1015f40000004000320020000010dd000080ea00fe
:10160400808060000e089000010878002e08900089
:101614006700600000004000fe0890008008dd00c4
:101624000e08900010007800810070000e089000f1
:1016340001087800110020002e0890000008dd0049
:10164400800078001e08900010007800810070006f
:101654001e089000010878000004a9004f04be0091
:101664000080fa00000006001800fa00889fbe00ff
:1016740070079800020f9800130f9800210f98002c
:10168400340f98006000b800008fbe006000b800fe
:1016940020079800310798006000b80040079800c0
:1016a400510798000004a8007e009000000040004c
:1016b40000004000800078000043200000804000cb
:1016c400600798003e089000e10f500053003a0074
:1016d4000e0990009e099000f0ff2f0001002000e9
:1016e400020278000301780080017800010078008c
:1016f40003026200000061008000eb00c000dd0016
:10170400000020000001be006120b800000171004b
:101714008181710022079800330798000e08900019
:101724009e089000408cde00cf8cde000801be00d5
:10173400300020000100200002027800030178003c
:10174400800178000100780003026200000061005b
:101754008000eb00c000dd00000020000001be009e
:101764006120b80000017100818171004207980076
:10177400530798000e0890009e089000428bde00ec
:10178400cf8bde000601be00f07f200001002000a8
:1017940002027800830178000001780001007800db
:1017a40002016200008061008000eb00c000dd00e7
:1017b40000002000008fbe006110b8001e1f7000e2
:1017c4001e9770002e089000e10f500008003a00a8
:1017d4001e007800c500dd004e009000008040002f
:1017e400e80040006e009000010878000600370011
:1017f4001e007800c500dd004e009000808040008f
:101804006e009000010878006e0090000080e800ef
:10181400ae00900001087800220037000e09900005
:101824009e099000f07f2000010020000202780051
:101834008301780000017800010078000201620051
:10184400008061008000eb00c000dd00000020008b
:10185400008fbe006110b8001e1f70001e9770003c
:101864002e089000e10f500006003a001e00780098
:101874004500dd00e80040006e009000010878009b
:10188400040037001e007800c500dd006e009000e3
:10189400010878006e0090000080e8008000eb00f2
:1018a400010878000004a9004f04be000080fa007b
:1018b400000006002200fa00889fbe00400f980036
:1018c400520f9800630f9800710f98000417980046
:1018d4006000b800008fbe006000b80020079800c8
:1018e400310798006000b80040079800510798003d
:1018f4006000b80060079800710798006000b800a5
:10190400000f9800110f98006000b800200f980095
:10191400310f98007e0890000000e000460032007d
:101924005e099000ee099000f00320000100200001
:101934000202780003017800800178000100780039
:1019440003026200000061008000eb00c000dd00c3
:10195400000020000001be006120b80000017100f9
:1019640081817100020f9800130f98005e089000a7
:10197400ee0890004a09dd004604de000804710008
:10198400c68cde000801be00f0ff2000010020002c
:1019940002027800030178008001780001007800d9
:1019a40003026200000061008000eb00c000dd0063
:1019b400000020000001be006120b8000001710099
:1019c40081817100220f9800330f98005e08900007
:1019d400ee089000428bde00cf8bde000601be00d5
:1019e400f07f20000100200002027800030178004b
:1019f40080017800010078000302620000006100a9
:101a04008000eb00c000dd00000020000001be00eb
:101a14006120b800000171008181710062079800a3
:101a2400730798002e099000be09900022079800c1
:101a340033079800130037005e099000ee09900008
:101a4400f07f2000010020000202780003017800ea
:101a54008001780001007800030262000000610048
:101a64008000eb00c000dd00000020000001be008b
:101a74006120b80000017100818171006207980043
:101a8400730798000e109000e10f500017003a0001
:101a94006e009000fe0090004209dd00ce01de00e1
:101aa400830171004201dd007e0890008000eb009c
:101ab40000007100818071000001be000210a000ce
:101ac400028fbe000e0990009e0990004a18dd00a6
:101ad400c610de00810070004a10dd000090a000f6
:101ae4004007980051079800120037006e009000dc
:101af400fe0090004209dd00ce01de00830171008a
:101b04004201dd007e0890008000eb00001f7100a0
:101b1400019771000e0990009e0990004a18dd009b
:101b2400c610de00810070004a10dd0040079800f6
:101b3400510798007e0890000000e0000900320080
:101b44001e007800800078000110a0004e0890006c
:101b54004401dd0000f8270000004100010878007e
:101b6400060037009e0078004e0890004401dd0016
:101b740000f827000000410001087800ae00900042
:101b84004e0890004401dd0020f8270000004100c9
:101b940001087800ce0090004e0890004401dd005a
:101ba40040f8270000004100010878004f04be00ff
:101bb4000080fa00000006000c00fa00000f780014
:101bc40011079800220798003307980044079800eb
:101bd400550798001e0078004400dd00e400400032
:101be40000f82700008040009000780000ff2f00dc
:101bf400808060001e009000808040001e007800fd
:101c04004401dd0040f8270000004100010878008d
:101c14001e007800c400dd0060f82700008040004a
:101c2400ae009000010878001e007800c400dd00ba
:101c340080f8270000804000be0090000108780072
:101c44001e007800c400dd00a0f8270000804000da
:101c5400ce009000010878001e007800c400dd006a
:101c6400c0f8270000804000de00900001087800e2
:101c74000080fa00000006000400fa001007980033
:101c84000004a80040412000000f78001e007800e6
:101c940090007800120020001e0090000010dd006b
:101ca4000080ea00808060001e007800010878004f
:101cb4000004a9000080fa00000006002000fa00d9
:101cc400889fbe00200f9800320f9800430f9800a1
:101cd400510f9800640f9800750f98006000b800c9
:101ce400008fbe006000b8002007980031079800fc
:101cf4006000b80040079800510798000005a8004c
:101d04002e08900000004000000040008000780091
:101d14000054200000804000600798002e089000c6
:101d24004280de0000004000800078000052200065
:101d340000804000700798002e0890004380de0069
:101d440000004000800078008051200000804000a6
:101d5400000f980040512000100f98005e0890007a
:101d6400e10f500049003a003e099000ce0990006e
:101d7400f0ff2f0001002000020278000301780028
:101d84008001780001007800030262000000610015
:101d94008000eb00c000dd00000020000001be0058
:101da4006120b80000017100818171002207980050
:101db400330798003e089000ce089000408cde0067
:101dc400cf8cde000801be0030002000010020009e
:101dd4000202780003017800800178000100780095
:101de40003026200000061008000eb00c000dd001f
:101df400000020000001be006120b8000001710055
:101e04008181710042079800530798003e089000b2
:101e1400ce089000428bde00cf8bde000601be00b0
:101e2400f07f200001002000020278008301780086
:101e34000001780001007800020162000080610066
:101e44008000eb00c000dd0000002000008fbe0019
:101e54006110b8001e1f70001e9770001e007800ed
:101e6400c500dd004e00900000804000e800400006
:101e74006e009000010878006e0090000080e80079
:101e8400ae00900001087800190037003e09900068
:101e9400ce099000f07f20000100200002027800ab
:101ea40083017800000178000100780002016200db
:101eb400008061008000eb00c000dd000000200015
:101ec400008fbe006110b8001e1f70001e977000c6
:101ed4001e007800c500dd006e0090000108780047
:101ee4006e0090000080e8008000eb00010878009c
:101ef4007e009000900078002e089000630060003f
:101f04004200dd00f20020000010dd000080ea0045
:101f1400808060007e009000010878002e08900008
:101f2400630060004200dd00ee0890008008dd00e0
:101f34007e00900010007800810070007e00900008
:101f4400010878000e089000900078002e08900098
:101f54006700600000004000320020000010dd0037
:101f64000080ea00808060000e089000010878007c
:101f74002e0890006700600000004000fe089000fa
:101f84008008dd000e0890001000780081007000c9
:101f94000e08900001087800110020002e0890001f
:101fa4000008dd00800078001e0890001000780012
:101fb400810070001e089000010878000005a90047
:101fc4004f04be000080fa00000006001800fa006a
:101fd400889fbe0070079800020f9800130f9800a6
:101fe400210f9800340f98006000b800008fbe00e5
:101ff4006000b80020079800310798006000b8001e
:1020040040079800510798000005a8007e00900042
:1020140000004000000040008000780000532000d1
:1020240000804000600798003e089000e10f5000d7
:1020340053003a000e0990009e099000f0ff2f0013
:10204400010020000202780003017800800178007a
:102054000100780003026200000061008000eb00d0
:10206400c000dd00000020000001be006120b800b7
:1020740000017100818171002207980033079800e4
:102084000e0890009e089000408cde00cf8cde008d
:102094000801be0030002000010020000202780088
:1020a40003017800800178000100780003026200d7
:1020b400000061008000eb00c000dd000000200093
:1020c4000001be006120b80000017100818171002f
:1020d40042079800530798000e0890009e0890004d
:1020e400428bde00cf8bde000601be00f07f2000b5
:1020f40001002000020278008301780000017800ca
:102104000100780002016200008061008000eb00a1
:10211400c000dd0000002000008fbe006110b80088
:102124001e1f70001e9770002e089000e10f5000d3
:1021340008003a001e007800c500dd004e00900043
:1021440000804000e80040006e0090000108780024
:10215400060037001e007800c500dd004e00900028
:10216400808040006e009000010878006e009000ae
:102174000080e800ae0090000108780022003700db
:102184000e0990009e099000f07f200001002000bd
:1021940002027800830178000001780001007800d1
:1021a40002016200008061008000eb00c000dd00dd
:1021b40000002000008fbe006110b8001e1f7000d8
:1021c4001e9770002e089000e10f500006003a00a0
:1021d4001e0078004500dd00e80040006e0090001d
:1021e40001087800040037001e007800c500dd00f7
:1021f4006e009000010878006e0090000080e800f6
:102204008000eb00010878000005a9004f04be001f
:102214000080fa00000006002200fa00889fbe0039
:10222400400f9800520f9800630f9800710f9800a8
:10223400041798006000b800008fbe006000b8006a
:1022440020079800310798006000b8004007980004
:10225400510798006000b800600798007107980063
:102264006000b800000f9800110f98006000b800db
:10227400200f9800310f98007e0890000000e000c5
:10228400460032005e099000ee099000f003200041
:102294000100200002027800030178008001780028
:1022a4000100780003026200000061008000eb007e
:1022b400c000dd00000020000001be006120b80065
:1022c4000001710081817100020f9800130f9800c2
:1022d4005e089000ee0890004a09dd004604de0026
:1022e40008047100c68cde000801be00f0ff200067
:1022f40001002000020278000301780080017800c8
:102304000100780003026200000061008000eb001d
:10231400c000dd00000020000001be006120b80004
:102324000001710081817100220f9800330f980021
:102334005e089000ee089000428bde00cf8bde003a
:102344000601be00f07f2000010020000202780098
:102354000301780080017800010078000302620024
:10236400000061008000eb00c000dd0000002000e0
:102374000001be006120b80000017100818171007c
:1023840062079800730798002e099000be09900018
:102394002207980033079800130037005e09900065
:1023a400ee099000f07f2000010020000202780076
:1023b40003017800800178000100780003026200c4
:1023c400000061008000eb00c000dd000000200080
:1023d4000001be006120b80000017100818171001c
:1023e40062079800730798000e109000e10f5000e8
:1023f40017003a006e009000fe0090004209dd00d4
:10240400ce01de00830171004201dd007e089000f0
:102414008000eb0000007100818071000001be00ab
:102424000210a000028fbe000e0990009e099000c9
:102434004a18dd00c610de00810070004a10dd007d
:102444000090a00040079800510798001200370040
:102454006e009000fe0090004209dd00ce01de0017
:10246400830171004201dd007e0890008000eb00d2
:10247400001f7100019771000e0990009e099000e1
:102484004a18dd00c610de00810070004a10dd002d
:1024940040079800510798007e0890000000e00073
:1024a400090032001e007800800078000110a000ae
:1024b4004e0890004401dd0000fc270000004100ac
:1024c40001087800060037009e0078004e0890004e
:1024d4004401dd0000fc27000000410001087800f1
:1024e400ae0090004e0890004401dd0020fc27005f
:1024f4000000410001087800ce0090004e089000d2
:102504004401dd0040fc2700000041000108780080
:102514004f04be000080fa00000006000c00fa0020
:10252400000f7800110798002207980033079800dd
:1025340044079800550798001e0078004400dd0009
:10254400e400400000fc2700008040009000780078
:1025540000ff2f00808060001e00900080804000fb
:102564001e0078004401dd0040fc2700000041000b
:10257400010878001e007800c400dd0060fc27001c
:1025840000804000ae009000010878001e00780032
:10259400c400dd0080fc270000804000be009000e5
:1025a400010878001e007800c400dd00a0fc2700ac
:1025b40000804000ce009000010878001e007800e2
:1025c400c400dd00c0fc270000804000de00900055
:1025d400010878000080fa00000006000400fa00f8
:1025e400100798000005a80040512000000f780053
:1025f4001e00780090007800120020001e00900059
:102604000010dd000080ea00808060001e00780079
:10261400010878000005a9000080fa000000060007
:102624000000fa00e023ef0000022200001c8800f2
:1026340020442000401c880070002000501c8800aa
:1026440060042000101c880000782000201c8800f2
:1026540081e3a8000080fa00000006000000fa00f0
:10266400e023ef0000022000c01c8800004420008a
:10267400001d880070002000101d8800200220002a
:10268400d01c880000782000e01c880099e3a80092
:102694000080fa00000006000000fa000164a800af
:1026a40081208000000c2000010070008020880040
:1026b4008120800000fc2f00008060000000a0004a
:1026c4008020880091208000800320000100700099
:1026d4009020880012e4a80091208000f08f2f0041
:1026e400808060000050200001007000902088006d
:1026f4009120800080ff2f00008060000020a00057
:102704009020880012c4a8000080fa00000006008f
:102714000000fa0001208000f08f2f00008060008c
:1027240000a0a0000020880000000000012080001c
:10273400000e20008080600000082000808f500080
:10274400faff3a00d4ff070031208000f0ff210097
:1027540000806000302088008002eb00140020001c
:1027640011002000f2ff2f00e3ff210010002000e1
:10277400f9fa07001400200011002000f2ff2f00d6
:10278400f3ff210010002000b7fb070001208000a8
:10279400f08f2f00008060000020880000000000ff
:1027a40001208000000e2000008060000000e00096
:1027b400fbff3a002a24ef005021800040218800ca
:1027c4004021800010218800102180000021880011
:1027d40030e4a80031e4a900802180003000b30077
:1027e40080218800812180000030200001007000d9
:1027f400802188000080fa00000006000000fa0032
:1028040000022200601c880020542000a01c8800c4
:1028140070002000b01c880070042000701c880028
:10282400007c2000801c88008de3a8000080fa0052
:10283400000006000000fa00e023ef000002200080
:10284400201d880000542000601d880070002000b6
:10285400701d880070032000301d8800007c20005b
:10286400401d8800a5e3a8000080fa0000000600cf
:102874000000fa000165a80081288000000c2000f7
:1028840001007000802888008128800000fc2f004f
:10289400008060000000a00080288800912880004b
:1028a40080032000010070009028880012e5a80031
:1028b40091288000f08f2f0080806000005020005d
:1028c40001007000902888009128800080ff2f006c
:1028d400008060000020a0009028880012c5a80095
:1028e4000080fa00000006000000fa0001288000c1
:1028f400f08f2f000080600000a0a0000028880056
:102904000000000001288000000e2000808060008c
:1029140000082000808f5000faff3a00d4ff07001f
:1029240031288000f0ff21000080600030288800fa
:102934008002eb001400200011002000f2ff2f00a1
:10294400e3ff210010002000dcfc0700140020003d
:1029540011002000f2ff2f00f3ff210010002000df
:102964009afd070001288000f08f2f00008060008e
:10297400002888000000000001288000000e2000cc
:10298400008060000000e000fbff3a002a25ef0011
:10299400502980004029880040298000102988009f
:1029a400102980000029880030e5a80031e5a9003d
:1029b400802980003000b3008029880081298000ac
:1029c4000030200001007000802988000080fa0097
:1029d400000006000000fa000421ef008460a90052
:1029e40021058000f0ff28000080600000e0a000c6
:1029f400200588009460a8000000280010088800c2
:0c2a040005e1a8000080fa0000000600b8
:020000040000fa
:102a1000040800002400000000000000000800007e
:102a20000400000000000000807f00004000000063
:102a300000000000c07f0000400000000000000017
:042a40000000000092
:020000040000fa
:0200000401f009
:04000c00f8ff0000f9
:020000040000fa
:0200000401f009
:040010007dff000070
:020000040000fa
:0200000401f009
:040014007fff00006a
:00000001FF
