:020000040000fa
:080000000001040000000000f3
:020000040000fa
:0400080018050000d7
:020000040000fa
:04000c0018050000d3
:020000040000fa
:0400100018050000cf
:020000040000fa
:0400140018050000cb
:020000040000fa
:0400180018050000c7
:020000040000fa
:04001c0018050000c3
:020000040000fa
:0400200018050000bf
:020000040000fa
:0400240018050000bb
:020000040000fa
:0400280018050000b7
:020000040000fa
:04002c00a602000028
:020000040000fa
:0400300018050000af
:020000040000fa
:040034009e03000027
:020000040000fa
:04003800ce020000f4
:020000040000fa
:04003c0018050000a3
:020000040000fa
:040040002404000094
:020000040000fa
:04004400e8040000cc
:020000040000fa
:040048001805000097
:020000040000fa
:04004c001805000093
:020000040000fa
:04005000180500008f
:020000040000fa
:04005400180500008b
:020000040000fa
:040058001805000087
:020000040000fa
:04005c001805000083
:020000040000fa
:04006000180500007f
:020000040000fa
:04006400e0010000b7
:020000040000fa
:040068001805000077
:020000040000fa
:04006c001805000073
:020000040000fa
:04007000180500006f
:020000040000fa
:04007400180500006b
:020000040000fa
:040078001805000067
:020000040000fa
:04007c00fe0300007f
:020000040000fa
:04008000180500005f
:020000040000fa
:04008400180500005b
:020000040000fa
:040088001805000057
:020000040000fa
:04008c001805000053
:020000040000fa
:04009000180500004f
:020000040000fa
:040094005c04000008
:020000040000fa
:04009800f60200006c
:020000040000fa
:04009c001805000043
:020000040000fa
:0400a000180500003f
:020000040000fa
:0400a400180500003b
:020000040000fa
:0400a8001805000037
:020000040000fa
:0400ac001805000033
:020000040000fa
:0400b000180500002f
:020000040000fa
:0400b400180500002b
:020000040000fa
:0400b8001805000027
:020000040000fa
:0400bc001805000023
:020000040000fa
:0400c000180500001f
:020000040000fa
:0400c400180500001b
:020000040000fa
:0400c80054030000dd
:020000040000fa
:0400cc001805000013
:020000040000fa
:0400d000180500000f
:020000040000fa
:0400d4001e03000007
:020000040000fa
:0400d8001805000007
:020000040000fa
:0401080018050000d6
:020000040000fa
:04010c0018050000d2
:020000040000fa
:0401100018050000ce
:020000040000fa
:0401140018050000ca
:020000040000fa
:0401180018050000c6
:020000040000fa
:04011c0018050000c2
:020000040000fa
:0401200018050000be
:020000040000fa
:0401240018050000ba
:020000040000fa
:0401280018050000b6
:020000040000fa
:04012c0018050000b2
:020000040000fa
:0401300018050000ae
:020000040000fa
:0401340018050000aa
:020000040000fa
:0401380018050000a6
:020000040000fa
:04013c0018050000a2
:020000040000fa
:04014000180500009e
:020000040000fa
:04014400180500009a
:020000040000fa
:040148001805000096
:020000040000fa
:04014c001805000092
:020000040000fa
:04015000180500008e
:020000040000fa
:04015400180500008a
:020000040000fa
:040158001805000086
:020000040000fa
:04015c001805000082
:020000040000fa
:04016000180500007e
:020000040000fa
:04016400180500007a
:020000040000fa
:040168001805000076
:020000040000fa
:04016c001805000072
:020000040000fa
:04017000180500006e
:020000040000fa
:04017400180500006a
:020000040000fa
:040178001805000066
:020000040000fa
:04017c001805000062
:020000040000fa
:04018000180500005e
:020000040000fa
:04018400180500005a
:020000040000fa
:040188001805000056
:020000040000fa
:04018c001805000052
:020000040000fa
:04019000180500004e
:020000040000fa
:04019400180500004a
:020000040000fa
:040198001805000046
:020000040000fa
:04019c001805000042
:020000040000fa
:0401a000180500003e
:020000040000fa
:0401a400180500003a
:020000040000fa
:0401a8001805000036
:020000040000fa
:0401ac001805000032
:020000040000fa
:0401b000180500002e
:020000040000fa
:0401b400180500002a
:020000040000fa
:0401b8001805000026
:020000040000fa
:0401bc001805000022
:020000040000fa
:0401c000180500001e
:020000040000fa
:0401c400180500001a
:020000040000fa
:0401c8001805000016
:020000040000fa
:0401cc001805000012
:020000040000fa
:0401d000180500000e
:020000040000fa
:0401d400180500000a
:020000040000fa
:0401d8001805000006
:020000040000fa
:100200002f9320000e7f22000e01880000000000c6
:10021000000020000000e000020032000001200089
:100220002002880014000700030207000000e0001d
:1002300003003a00e04222000100200002003700e3
:100240000000200001002000810f7000010032003a
:1002500014000700000020000000e000020032004f
:1002600000000200000000007622020000000000f2
:100270000040da000000fe004440a9008002200097
:100280000000e0000300320000002000a001880010
:100290004440a800000006008a1f78008b1f7800e9
:1002a0000000060091018800800478000000eb0047
:1002b0001a003700e284440032a0b4009905ba0065
:1002c000e284440032a0b4009906ba00e2844400fb
:1002d00032a0b4000006eb00476fde00fd07b2005d
:1002e000636ce10003003a00ebff07000000eb0045
:1002f0000a003700606ce10004003a00005deb008a
:100300008b05e900fdff3e00040037006168e10055
:10031000010032000086eb000b00070019c7ba008d
:100320001905ba000e04e00003003a000a00e000dc
:10033000e0ff3a0000000600fe07b2009e018800c0
:100340008a047800f5ff3700395dba008b05e900b3
:100350000c003200295dba008b05e900080032006c
:100360000c00e00003003a00e284440032a0b40034
:10037000f5ff370019ddba008b05e900faff3a00f6
:100380008904e800e184440032a0b40000000600c3
:100390007a23040000000000222404000000000072
:1003a00028240400000000000c23040000000000ca
:1003b000aa23040000000000aa08040000000000b6
:1003c0003600f800809fbe00829fbe00849fbe0062
:1003d000869fbe000400fa000040eb00004f78004a
:1003e0000040eb001047980031178000004080006b
:1003f00000806800100798009e0090000004200014
:10040000008060000000e0000c00320040c0b3003b
:10041000004f780031178000000420000080600049
:100420000000e00003003a0010c0b300104798003d
:10043000020037000040eb00104798009e0090003b
:1004400000082000008060000000e0000c00320086
:1004500050c0b300004f7800311780000008200022
:10046000008060000000e00003003a0010c0b3000c
:1004700010479800020037000040eb00104798003a
:100480009e00900000102000008060000000e0004e
:100490000c00320060c0b300004f780031178000bc
:1004a00000102000008060000000e00003003a001f
:1004b00010c0b30010479800020037000040eb0066
:1004c000104798009e0090000020200000806000ef
:1004d0000000e0000c00320070c0b300004f780054
:1004e0003117800000202000008060000000e00044
:1004f00003003a0010c0b300104798000200370014
:100500000040eb0010479800504080000000e000e1
:1005100004003200524080009e4090001e4078004f
:1005200002000100301780000040880085e0a9002b
:100530000080fa004f03be004f02be004f01be0014
:100540004f00be003600f900004006003600f800fb
:10055000809fbe00829fbe00849fbe00869fbe001b
:100560000000fa00450c0700404080000000e00059
:100570000200320040408000000001008420a900f9
:100580000080fa004f03be004f02be004f01be00c4
:100590004f00be003600f900004006003600f800ab
:1005a000809fbe00829fbe00849fbe00869fbe00cb
:1005b0000000fa00310c0700404080000000e0001d
:1005c0000200320040408000000001008480a90049
:1005d0000080fa004f03be004f02be004f01be0074
:1005e0004f00be003600f900004006003600f8005b
:1005f000809fbe00829fbe00849fbe00869fbe007b
:100600000000fa001d0c0700404080000000e000e0
:100610000200320040408000000001008780a900f5
:100620000080fa004f03be004f02be004f01be0023
:100630004f00be003600f900004006003600f8000a
:10064000809fbe00829fbe00849fbe00869fbe002a
:100650000000fa009160a90000702000400e8800a0
:10066000e092200011c0b30001487800c092200041
:100670008040eb0001487800604080000000e0000e
:100680000200320060408000000001000080fa009b
:100690004f03be004f02be004f01be004f00be0020
:1006a0003600f900004006003600f800809fbe00ca
:1006b000829fbe00849fbe00869fbe000000fa009d
:1006c0001109800000802000008060000000e00030
:1006d00007003200204080000000e8002040880031
:1006e000304080000000e8003040880006003700fd
:1006f000204080000000e900204088003040800059
:100700000000e90030408800704080000000e000f8
:100710000200320070408000000001008900a90042
:100720000080fa004f03be004f02be004f01be0022
:100730004f00be003600f900004006003600f80009
:10074000809fbe00829fbe00849fbe00869fbe0029
:10075000889fbe000200fa0031098000104080002e
:10076000008050008000eb00970107000004be00ed
:1007700020408000cf80de009001070002002000b2
:10078000a3472400e50107000001be000800be00e9
:10079000ab0007004d010700000f78001e00780035
:1007a000cf80de008501070002002000032724001f
:1007b000da0107000200200003172400fd000700f3
:1007c000e0488800f1488800300980001040880027
:1007d0000428ef00570c07008460a9000080fa008d
:1007e0004f04be004f03be004f02be004f01be00cb
:1007f0004f00be003600f900004006003600f80049
:10080000809fbe00829fbe00849fbe00869fbe0068
:100810000000fa00804080000000e000020032008a
:10082000804080000000010086a0a9000080fa003e
:100830004f03be004f02be004f01be004f00be007e
:100840003600f900004006003600f800809fbe0028
:10085000829fbe00849fbe00869fbe000000fa00fb
:100860001ac8bf000004e000060032000049800002
:100870001149800042852000170d0700c70b0700b3
:1008800005003700e0488000f1488000e281200048
:10089000110d0700c10b070084c0a9000080fa00f9
:1008a0004f03be004f02be004f01be004f00be000e
:1008b0003600f900004006003600f800809fbe00b8
:1008c000829fbe00849fbe00869fbe000000fa008b
:1008d000b01c8000640060000000e00001003200f5
:1008e0009643a900b01c8000680060000000e00092
:1008f000010032009663a900b01c80007000600007
:100900000000e000010032009683a900b01c8000c6
:10091000610060000000e000070032009603a900bb
:10092000e04080000000e00002003200e040800073
:10093000000001008ee3a900b01c8000620060008e
:100940000000e000070032009623a900e04080008c
:100950000000e00002003200e040800000000100e2
:100960007ee3a900b11c800000042000008060002c
:100970000000e0000100320096c3a900b11c800015
:1009800000022000008060000000e0000100320052
:1009900096a3a900b11c8000000820000080600020
:1009a0000000e0000100320096e3a9009623ef006a
:1009b0008760a9000080fa004f03be004f02be000e
:1009c0004f01be004f00be003600f9000040060097
:1009d0003600f800809fbe00829fbe00849fbe004c
:1009e000869fbe000200fa00004980001149800085
:1009f00002002000032124006e000700b30007005e
:100a0000004f78009e407800602720005a0e0700b3
:100a100084e0a9000080fa004f03be004f02be0030
:100a20004f01be004f00be003600f9000040060036
:100a30000040da000000fe000000050003f0a20004
:100a4000889fbe008a9fbe008c1f78001b01070094
:100a5000220133006450e1004f0032006420e100c5
:100a60005200320003826c0007003b000905d000f1
:100a70000306d000820f54000c065d00020039000e
:100a80000200320089017800030678008582550053
:100a900004003d000003fd008103fd008502ea0023
:100aa0008b854200840f720002003b006000100042
:100ab000e08018006011b8000005eb007a28e10022
:100ac0000a00390006007800c75ddd00f707b200b4
:100ad000878075002d003700828171000a0178003f
:100ae000610560008180d1000080d3008502e900ab
:100af000f9ff3b00060440008784480002003b00e9
:100b000060041400e0841c000988a3000700320080
:100b10008a81710082817100610164008904d100c1
:100b20000884d3008b05e800170037000978a3007c
:100b300013003a000b00e000130034008b05e900bd
:100b40000804440089844c000a4474000978a30016
:100b50000d003a000b00e000070034008b05e900af
:100b60000804440089844c0001003a000b00200076
:100b70000978a300f7ff32000001eb000200370004
:100b8000828171000a017800910007000cf0a70033
:100b900001f0a000da0037006420e10002003a0012
:100ba000838f6c00da0033000801be000200be0033
:100bb000d3003700889fbe008a9fbe008c1f78003c
:100bc000be000700c500330003866c006450e100de
:100bd0002e0032006420e100330032006150e10059
:100be0002f0032006120e100310032008585550080
:100bf000eb07b000090020000804200005003700c2
:100c00000804440089844c000a00310006034300b4
:100c100087834b000001530081815b00f8ff3300a4
:100c20000203be000800a0000804440089844c00b0
:100c3000f6ff3900c639dd00830173000100320080
:100c4000130020008904d1000884d3000998a30070
:100c5000050032000800a7000300a0008904d100ad
:100c60000884d3008b05e8008904d1000884d300f0
:100c70000001eb000281d2005500070001f0a10045
:100c80000cf0a70001f0a0009d0037006420e100f7
:100c90009f0032000801be000200be00f7ff3700cf
:100ca0006120e1009a0032006000b800f3ff3700d5
:100cb0000000200001f82700f0ff3700140020009a
:100cc000ca003700f4ff2f00c80037000001be0043
:100cd000650007000470a70003f0a1006509b100da
:100ce000160032000d0035006828e10006003500ce
:100cf000f0ff2f00f1ff27000300e00013003b008e
:100d0000010028000000050000004000818048002c
:100d10008502e900fcff3a0008003700f88f420026
:100d200002003c008000eb00000005008100d100c3
:100d30000080d3008502e800fcff3a000300e000d9
:100d400002003b0060001000e08018000000060078
:100d50000001be00440007000470a70003f0a100da
:100d600003f8a30013003a006509b1001000320037
:100d7000090035006928e100020035000100280063
:100d80000000050000004000818048008502e90065
:100d9000fcff3a0000000600f88f42000500350015
:100da0008100d1000080d3008502e800fcff3a00fa
:100db000000006008000eb00000005004f89de0007
:100dc00082017800a40037006011b800b20037003b
:100dd00081002000618055000b003d000b002000c9
:100de00061fe2f000100e1001d00340082817100ce
:100df000610164008904d1000884d3000000e80088
:100e0000faff3a00710020006100640003007000e6
:100e1000020060000900320061044400e0844c00dc
:100e20000988a500050032008b05e8006808e1008c
:100e300002003a008904d1000884d300f20f200098
:100e40000258e10005003d00c75ddd00f907b20072
:100e50008980750008007800000006000bf8270064
:100e60008b00780000000500c70ade00f107b20021
:100e7000f50fb20008003200e1cf4200020032005c
:100e80000170a00024000500810f700001003200f5
:100e90000408050044000500810f700002003a00bc
:100ea000140005008502e9000000400081c04800f0
:100eb000fcff3b000170a000240005000004be0000
:100ec000e9ff07000003be000405be000200be00eb
:100ed000e5ff0700844f7500000006000200be0019
:100ee0006450e100050036006420e1000200360095
:100ef0000968a30001003a000800be000160a000dc
:100f00004f0678004f05be004f04be0000000600eb
:100f1000f0ff2f00f1ff2700f9ff3700889fbe0088
:100f20008a9fbe008c1f7800e4ff0700ebff3300b0
:100f300003866c006450e100240032006420e1006c
:100f4000270032006150e100220032006120e10000
:100f5000210032008b854200eb07b1000134b8005c
:100f6000003ab8000804420089844a00013ab800f7
:100f70000030b8008880400009014a0004003300b6
:100f80000000400081804800020149008b05e90013
:100f9000c909dd0083017000010032001300200048
:100fa000c814de004814dd004709de001200b2005c
:100fb000c808de000884700085ff070001f0a1006a
:100fc0000cf0a70001f0a000cdff37006120e10088
:100fd000cfff32000801be000200be00f7ff37005d
:100fe0006150e100fcff3a00c9ff3700889fbe0056
:100ff0008a9fbe00841f7800b0ff07004f00780072
:1010000011003300f0ff2f00838f6c0006003b00bf
:10101000040565000a00a7000800370009f0a600d3
:101020001000200008003700820f5400838f5c00fe
:10103000030039001000200001003e0000002000e5
:1010400009f0a7000000ea004f05be004f04be00f3
:101050000000e00000000600881f7800030478000c
:101060000300e00007003d0060001000e080180071
:1010700060011900e081190002003b0001f02d0021
:10108000030037000400070008f0a70001f0a000eb
:101090004f04780000000600889fbe008a9fbe00b3
:1010a0000082700004027100048271002600320088
:1010b0000004be000200be006011b8006b092000f1
:1010c000950220000182cf000a0039000541b100dd
:1010d0000082cf00070039000541b1000982cf002e
:1010e000040039000541b1000882cf000100390039
:1010f0000541b10005425200120032000a003b00d7
:1011000082817100610164008100d1000080d30000
:101110008984d3000884d3008b05e8000442e800ea
:10112000f7ff3a00070037000804440089844c00a8
:1011300000004800818048008b05e9000442e90076
:10114000f9ff3a0022ff07004f05be004f04be0022
:1011500000000600881f780002047800080178006b
:10116000c4000700080040004f047800000006009b
:101170000000fa00881f780000047800ea81570018
:101180003fb9970088007800a08a20000700070078
:101190000000e000020035008040eb0001747800a0
:1011a0004f0478000080fa00000006006200fa0098
:1011b000889fbe008a1f78000005780081047800af
:1011c000020478008300780080f92f000f004000af
:1011d000770107009a979f00a9979f000000eb00f6
:1011e000b09f9f001885fb008a04fb000a05ea00f7
:1011f0004f55de0050022000808f54000d00320059
:10120000e10f55000b003a000a01780088007800d1
:101210002f9097009f91970003000100a0979f00d7
:101220000000e0008e0032003f9897000000e800c8
:10123000b09f9f000a04440050022000808f540099
:10124000040032000900e000e6ff3a003f989700f2
:10125000840037000000eb00909f9f00809f9f005c
:10126000f0979f00e0979f00d0979f00c0979f0046
:10127000070037006191200001005000000040008d
:10128000a190200061007800df98970001007000b5
:10129000d09f9f00880478000904780038457800c2
:1012a0008a00fb0060912000790007000000e00048
:1012b000f0ff3a00a1c2b300814f55000e003a0082
:1012c000cf8897000180e900c08f9f001000780050
:1012d000c09f9f000000e00005003d000000ea0004
:1012e000c09f9f005f9897000020a000d09f9f00a4
:1012f0000904e8000f003700c09f9f000000eb00ca
:1013000005003700f2ff2700820f50000200320074
:101310006a01b9000280400009047800880478005e
:10132000b900fb000103b100e98f5000f5ff360062
:10133000c09f9f00e0c2b300984f1000020032002f
:101340000080eb0019003700a0c2b300d84f100096
:1013500007003a00cf8897000180e900c08f9f0006
:1013600010007800a09f9f000804e80010003700dc
:101370000000eb00a09f9f00880078000500370068
:10138000f3ff2700830f5000020032006a02b90009
:101390000400410001047800880078003101fb005e
:1013a0000203b100e90f5100f5ff3600a09f9f0036
:1013b000984478008900fb0020902000340007004a
:1013c0000000e000020032000804e80001003700dd
:1013d0008044eb00c97f9f0080c6b30080cf5400db
:1013e00004003a0098cf14000a003a00664050000a
:1013f00006003700c0c6b30080cf540005003a0095
:1014000098cf140003003a0065404000c07f9f0061
:101410000804e8001801fb00e3fb2f008f81410066
:1014200081f92f008f804000a0f92f000f004000ad
:10143000e10007000000e00009003a00e1fb2f0096
:101440008f804000a0f92f000f0040001c00070013
:101450000000e000020035000804e80061ff3700ea
:101460000080eb004f0578004f04be000080fa00ba
:10147000000006008001780002003700b1597800b2
:101480000201e9000200e000fcff3a000000060053
:10149000020037000304e00006003200000178007b
:1014a00002007800b041780081cf5100f9ff3a0086
:1014b000010037000001eb00020078000000060088
:1014c0000400fa00889fbe008a9fbe008c1f78002f
:1014d0000004780001067800f80d90007800900074
:1014e00080855500080890008085550018089000f8
:1014f00080855500280890008085550038089000a8
:101500008085550048089000808555000002220023
:1015100090bf9f0000032300a0bf9f000810900011
:101520000028a30015003a000b00e000130034006f
:101530000b0578008a047800e20f550001003600a0
:1015400029002000c801900009017800ee805700b2
:101550005800900003000100500498000000e000d3
:101560008c0032006808900009004000600c980070
:10157000090555004240a900eeff3c0078019000ab
:101580000200e0000c003400c80190008c007800dc
:101590005800900003000100500498008080eb0088
:1015a0000000e0007c003200e80890007800900025
:1015b00000804000600c9800880c90000900e0005a
:1015c0001100340009057800e28f54000100360054
:1015d0002a002000c80190000a017800ec80570022
:1015e0005800900003000100500498000000e00043
:1015f00068003200680890000a004000600c980003
:101600008a845400edff3700180990000200e000c2
:101610000c003400c8019000e800900058009000d1
:1016200003000100500498008080eb000000e000ff
:1016300059003200e808900018089000008040002f
:10164000600c9800a80c90000900e0001100340024
:1016500009057800e28f5400010036002a002000be
:10166000c80190000a017800ec80570058009000f3
:1016700003000100500498000000e0004500320023
:10168000680890000a004000600c98008a845400aa
:10169000edff3700380990000200e0000e00340032
:1016a000e80090001808900080804000c801900079
:1016b0005800900003000100500498008080eb0067
:1016c0000000e00034003200e80890003808900084
:1016d00000804000600c9800c80c90000900e000f9
:1016e0001100340009057800e28f54000100360033
:1016f0002a002000c80190000a017800ec80570001
:101700005800900003000100500498000000e00021
:1017100020003200680890000a004000600c980029
:101720008a845400edff3700081090008000eb0021
:101730000028a300180032000b00e000160034005f
:101740008b04780009057800e28f54000100360010
:101750002a002000c80190000a017800ee8057009e
:101760005800900003000100500498000000e000c1
:1017700008003200680890000a004000600c9800e1
:101780008a8454004240a900eeff3c008000eb0038
:10179000010037008080eb00010078004f067800e0
:1017a0004f05be004f04be000080fa000000060096
:1017b0000108780000000600889fbe008a1f78009c
:1017c00000047800824478000305780070c4b300f8
:1017d00080cf54000a003c0000c0e90080cf5400d4
:1017e0000f003d0050c2b30080cf540035003200de
:1017f0007c40400080cf540035003a00080037009c
:1018000010c6b30080cf5400050032003000350010
:10181000b0c9b30000c04400e24f50002c003e00ad
:1018200028619000c0c4b300804f510006003a0008
:101830001101780068005100800878005001be0056
:101840004000be000500370011017800640051001f
:10185000800878001000be00a3030700009cbe00b3
:101860000294be00b8009000780090000100e000f3
:1018700002003d00d1c2b30008003700881090007c
:101880000118a30002003200b1c2b3000300370008
:101890000108a3000400320001c2b3000175780002
:1018a0000000e800700498007800900000054500f2
:1018b0006a0498008900fb00080078001000070007
:1018c0000b0037007800900009757800060037009b
:1018d00078009000000545000904e00001003a008e
:1018e00059c2b300094d78000000e8007004980068
:1018f0000000eb004f0578004f04be00000006001a
:101900002f04b000889fbe008a9fbe008c9fbe003f
:101910008e1f78000007780081f79f003e04be000c
:101920002e05be005e0890000000e00002003d00b1
:1019300060002000500f98008e00780020fb2f00e0
:101940000f0040003a020700e20f50000a003a0080
:1019500030002000100f9800b1c9b3000ff09700bd
:1019600081404000e0882000e1cf50000d003e00a3
:10197000a08820000b0037000000e0000f003400ba
:1019800030002000100f9800b1c9b3000ff197008c
:101990008140410060892000e1cf500001003e00fd
:1019a00020892000ee009000b0487800b0687800f0
:1019b0001040780090409800f30037000000e000ed
:1019c00005003a0022fb2f000f01410000197800aa
:1019d0008001eb00e70037006022b8006033b800f8
:1019e0000800be000a01be00870207000000e000f8
:1019f00001003d000bf0a200705927009f9897004e
:101a00000088b900026a280013002000e2020700e3
:101a1000640650009c9f9f0013003b006306160065
:101a2000c0ff2f00000666008c01ea00939f9f0014
:101a3000ad8920000800be000a01be000700370083
:101a40000c08a300030032003d02be002d03be00bf
:101a5000730307000c86d100e88646000c00e00006
:101a6000f7ff3c00180037000c00e00018003200bf
:101a7000c0ff2f00000666009c9f9f00ad892000dc
:101a80006000b8000200200003ff230007003700b9
:101a90000c08a300030032003d02be002d03be006f
:101aa0005f0307000c86d100e88646000c00e000ca
:101ab000f7ff3c000002be000203be000800be00ab
:101ac0000a01be005a0207000004be000205be0063
:101ad000de08900060c6b3000ff29700804f5200fe
:101ae000040032006000200062c4b300824f520044
:101af00002003a009f9a97006a80420081004000ed
:101b0000f1b79f0001037800f30f53000200340087
:101b100037012000f7b79f0000c3b300c0779f00d4
:101b200056fb2f000f0343000e007800a0b79f0064
:101b3000060778003d0037000800be000a01be001d
:101b4000080307000006be007fb19700680151003e
:101b5000f2b79f004240a9000c0034002d0307009b
:101b60000002be000203be000800be000a01be0063
:101b7000a10307006022b80046782d0077192400e1
:101b8000270307000004be000205be00e80047006e
:101b90008e0020000802be000a03be00b4b79f00fa
:101ba000c5b79f00d6b79f00e7b79f000c01be00e6
:101bb000010478000c003700a4002000050020007c
:101bc000c0fd2f000f004000840107006fa89700a0
:101bd000ffa897000fb197009fb1970005c3b3000e
:101be000056441000001be00e00f5100e08f590084
:101bf000030034000e07e900e10f4700eeff3a0052
:101c0000880078003fb49700cfb497005fb5970085
:101c1000efb597000200370000c3b3008060780082
:101c20000e07e900fcff3b00688740007fb3970088
:101c30000600e000070034006022b8006033b800fe
:101c40000800be000a01be00f40107000000e00029
:101c5000b9ff3c000e0378002fb7970051fb2f000f
:101c60008f804000010353009f9b970067804300d3
:101c7000909f9f00020037000603e9000000e90082
:101c8000010178008200780003c3b300b1cf1100d6
:101c9000f9ff3200909f9f00de09900061c6b300fb
:101ca0000ff29700814f52000300320061c4b3006d
:101cb000814f520002003a000000e8000a0037009d
:101cc0001000200051c6b3008ff2970081cf520060
:101cd000050032000540780050c4b2000080fb00cf
:101ce0000000e9004f00de0083014000868f5100b4
:101cf00001003400860178000300e0001d0035007b
:101d000000c3b300868f510006003d0062c2790017
:101d10006940400041c3b300814f520001003c00c4
:101d2000694050008300e900810041000100370054
:101d3000840178000302e90001037800a1427800e1
:101d400080cf5200faff320091c3b300814f5000a0
:101d500001003a00054be8000400e00005003d00ea
:101d60000201e9008301e8001f9b97000603e800d9
:101d7000969f9f008ff397008700fb001f9a9700a4
:101d80000e007800060007004f0778004f06be00df
:101d90004f05be004f04be002f04b1000000060036
:101da000f0874700889fbe008a9fbe008c9fbe00c0
:101db0008e1f780000047800814478000205be0080
:101dc000040678000b00e00002003c001b0020002d
:101dd0000a93200060c6b30080cf54000e0032008a
:101de00060c4b30080cf54000b00320070c6b30053
:101df00080cf54000300320070c4b30080cf540081
:101e000081003a00e40f46007f003500580890003a
:101e1000800f56007c003d000c06e80060c6b30051
:101e200080cf54001000320060c4b30080cf540053
:101e30000d003200081090000038a30004003a00a2
:101e400058089000808f550001003d005b0c980001
:101e5000580890000c005000500c980002003b0005
:101e60000000eb00500c980018089000e80090006b
:101e70000c00e00026003c0002c3b3008270780032
:101e80000000e800100c9800d80890000100e00065
:101e900003003c00881090000138a30005003200c8
:101ea000e8009000e2c2b300827078000000e80011
:101eb000100c9800580890008c00ea00810f500028
:101ec00001003d000006ea008c00ea00210c9800a9
:101ed000000646005c0c98008b0f56000100340091
:101ee0000b0678003c0c9800e80090001808900061
:101ef000008040000c0178008a0078005dfd07003a
:101f0000580890000c0650004c0c980090003700c8
:101f10008c8f550018003d00008040000b017800b8
:101f20008a00780053fd07001808900000804500e3
:101f3000100c98008b0556002b0c9800d8089000c8
:101f40000100e00003003c00881090000138a3006d
:101f500006003200e8009000e2c2b3008270780010
:101f6000380890000000e800300c980058089000f5
:101f7000400c980076003700008040000c0178008b
:101f80008a0078003bfd070018089000000046001a
:101f9000100c98008c855500d80890000100e000d6
:101fa00003003c00881090000138a30005003200b7
:101fb000e8009000e2c2b300827078000000e80000
:101fc000100c980058089000808f550001003400d4
:101fd00080057800e800900018089000008040001c
:101fe0008c0045000b01780022fd070018089000c6
:101ff0000b004000100c9800580890008b05500012
:102000002b0c98005200370018089000e800900050
:102010009a7078000000e800100c9800d808900032
:102020000100e00003003c00881090000138a3008c
:1020300005003200e8009000e2c2b3008270780030
:102040000000e800100c9800580890000000e00024
:10205000100034008b05e900808f5500010034002a
:1020600080057800e800900018089000008040008b
:102070008a00e8000b017800fefc070018089000b9
:102080000b004000100c9800580890008b05500081
:102090002b0c9800e8009000180890000080400089
:1020a000095878000007e8000c00e0000400350043
:1020b000b1c2b300014878008e04780004003700f4
:1020c000d1c2b300014878008e0478000c06ea0003
:1020d0007d8557008006eb0009003700a200200034
:1020e0008c00780072805700310007007fb09700a5
:1020f0008fb89700016d7800000678008d06e80023
:102100000c00e000f5ff3c000d00e00009003a0083
:102110008e04780000c3b300805c780005003700af
:102120008d06e900fc80570061c07e0002c3b30049
:10213000825c40000d00e000f9ff3c00e8009000e8
:10214000180890000080400080845400390c9800ea
:102150000810900074006000f00f50000e003a006c
:10216000980890007800900000804000a808900037
:1021700001004000b808900001004000c80890002d
:1021800001004000f8089000810f500002003d005f
:1021900000805000000c98004f0778004f06be00ea
:1021a0004f05be004f04be000f01b1000000060045
:1021b0008002780001037800110009000203d800b2
:1021c00080017800830a78000299b9000201530067
:1021d000920298000500780000000600881f780031
:1021e0008a9fbe008c9fbe00000478000205be00de
:1021f0000406be000401be000a00be00e60007009f
:10220000008cbe000c01be000d0207000005550049
:1022100081855d002a0498003b049800080078003e
:102220004f06be004f05be004f04780000000600b8
:10223000889fbe0000047800e68440001900d000aa
:102240004500de00f27f2000820f500010003a00af
:10225000000ceb00990478006f81640020002000de
:102260001b003a00210190000200e00018003a0033
:10227000110190000200e00015003a00100020005b
:102280001100e00012003200200020001000370092
:102290000000e00004003a00010078000e00070092
:1022a0000000e00008003c00f20028001901610075
:1022b00001fe2300810c710021c02f00010c4000a1
:1022c0000080eb0002003700000ceb000000eb0088
:1022d0004f04be0000000600e60040001101780037
:1022e00005002800850261006f0161008208780006
:1022f000020032001200200011003700a0019000ff
:10230000120020000300e0000d003a009001900050
:102310000300e0000a003a001000e00008003a0064
:10232000360037006403400096087800800178008a
:10233000530b780090097800040878007001510070
:10234000110278000400e000f6ff320013003700ad
:1023500064024000140378004f33de0083814100a3
:102360008308730080017800d3037800cf3bde0040
:102370001403780006034300068a730013027800f2
:1023800004024200100378004f33de008609720019
:1023900090017800038841000201e9009101780072
:1023a000ef8f5100eaff36001000370080017800ff
:1023b000530378004f33dd001002d100040873008e
:1023c0006402400094037800cf3bdd001303d1008a
:1023d00086897300110378004f33dd009401d1002a
:1023e000030a73009108d1000201e800910178000e
:1023f000ff8f5100edff3e00ef8861009188720071
:1024000002007800000006008f1fd10010020700b4
:102410008f87e9000000e00000000600809feb00cd
:102420000b0207008f87e9000000e00000000600b3
:102430002800fa00889fbe008a9fbe008c9fbe00c5
:1024400003866b008f0007006400e1004400320047
:102450006408e1004a0032006100e10046003200f9
:102460006108e10049003200ec0647006000b80056
:102470003d02be003d03be00f48657006011b80067
:102480003d04be003d05be007d0320000b0037006b
:102490000000a0008d06e900130032000402420093
:1024a00085824a0006034b0087834b0000004000f2
:1024b00081804800020149008381490008025200de
:1024c00089825a000a035b008b835b00f0ff3b00ac
:1024d0000802420089824a000a034b008b834b00aa
:1024e0008d06e900edff3a00848272008682720058
:1024f000f707b20087827200010032001500200049
:102500001e0490003e0b900006035400e63fb0000e
:102510000368a300070032000000a7000500a00028
:102520008301d1000281d3008180d3000080d300d9
:102530000603e8008301d1000281d3008180d3002b
:102540000080d3000002eb000482d20021000700cb
:1025500003f0a1000cf0a70003f0a0005d0037001d
:10256000640247006408e100570032003400be00f6
:102570003401be00f6ff37006108e100520032006e
:102580006011b8006000b800f1ff370003ff2700ba
:1025900002002000fbff3700839f68000100e0007d
:1025a00002003d0060001000e08018000300e00021
:1025b00002003d0060011100e081190010010700d8
:1025c0004f00e00002003b0060001000e0801800b7
:1025d00000000600180020005700200008045300e7
:1025e0000d003d000600200097fc2f000740e10091
:1025f0001e00340084827200610260008301d100f9
:102600000281d3008180d3000080d3000804e80059
:10261000f8ff3a00470020006104600005047400e0
:10262000040464000d00320061004000e0804800b6
:1026300060014900e081490003b8a50007003200ad
:102640000603e8006538e10004003a008301d10088
:102650000281d3008180d3000080d300f87f200066
:102660000830e10003003500080378006000b8007e
:102670006011b8004433dd00f300b2008301730041
:1026800000000600680447000294be000094be00eb
:10269000fc0447008694be008494be0009007800c4
:1026a000b401070008007800b20107009900780023
:1026b000814f70000b003b000800be008d01070039
:1026c0004f00b10003003700f3ff2700f2ff2f0097
:1026d0006110b9004f06be004f05be004f04be009a
:1026e0000080fa000000060081037800def9070090
:1026f0000001be006000b8000478a30013003a0097
:102700006220e10015003e000d0039008301d10078
:102710000281d3008180d3008301d1000281d300e4
:102720008180d3008301d1000281d3008180d30056
:102730000538b000c42add00f300b20083817200c6
:1027400007f0a70003f0a00000000600f3ff270039
:10275000f2ff2f006110b900fbff370003ff2700d5
:10276000f7ff37001400fa00889fbe008a9fbe0062
:102770008c9fbe000004be000205be00680047003a
:102780000a90be000890be007a0107000070a70002
:102790000bf0a100304320009e0290008082520086
:1027a000b0fe2f000028e10011003d00b0fc2f001a
:1027b0000028e100150034001e0990008e089000ea
:1027c0007e0090000501b0000201d1008180d3009d
:1027d0000080d3008502e800fbff3a000b00e00018
:1027e000bcff3b0060001000e0801800b9ff37001c
:1027f000f0ff2f00f1ff27000b00e000b5ff3b00ca
:102800000100280000002000b2ff37006000b8007f
:10281000b0ff37004f89de00820178007c0137006d
:102820002800fa00889fbe008a9fbe008c9fbe00d1
:1028300003866b0093ff07000028a30064003a00a2
:102840000128a30067003a000008a30062003a00d4
:102850000108a30065003a001e009000be08900029
:1028600081064000ed3fb100f4805700ee0190007a
:10287000111ab8008e099000311bb8009e09900013
:10288000311cb800511db800f48557004600070000
:10289000fe0190003a0007008b85e8003e0007002b
:1028a0008e09900040000700ee0190003400070000
:1028b0008b85e800380007008e0990004000070073
:1028c0009e0990001b18b800890440000a85480042
:1028d000fe019000340007008b85e80038000700f7
:1028e000ee019000300007008e0990001b18b80020
:1028f000890440000a8548000a98a30008003a00ad
:102900000402420085824a0006034b0087834b0085
:1029100008044c0089844c000a054d008d06e9002e
:1029200084827200850273004c3add0085027200d9
:102930000100320015002000443ade001400b2000d
:102940004538de00cb45dd000b007000c540de00e1
:10295000cb4ddd008b8070004549de00cb55dd009e
:102960000b017100c551de000d03780019ff07004f
:1029700003f0a1000cf0a70003f0a00055ff370002
:102980001b18b8008502400006834800e0834b0016
:1029900060044c00070037001b18b8000603400015
:1029a00087834800faff37001b18b80087034000f0
:1029b00008844800e0844c0060054d0000000600db
:1029c0001b18b8000804400089844800faff37004b
:1029d0000108a3003cff3a005800be005801be00a9
:1029e000e3ff37000008a30037ff3a00090478002e
:1029f000f9ff37000000000007f0a20016003700c2
:102a00006022b800060220000000d0008180d200c1
:102a10000482d2008582d2000000a000020252008f
:102a200083825a00030031000202420083824a007e
:102a30000000a1000603e900f3ff3a0000000600d1
:102a4000020ab900001bb9000200b8008100420070
:102a500081004300000006002800fa00889fbe00a5
:102a60008a9fbe008c9fbe0007067800878669009b
:102a70000c003b00030478008704780008f0a100f4
:102a800009f0a100840f5000858f5800860f59006f
:102a9000890f5c00030033000cf0a20001003a0033
:102aa0000cf0a100f7fe07006400e1005f003200b7
:102ab000780147006408e100610032006c014700c2
:102ac000748557003200be001201be003a04be00f9
:102ad0001a05be001e039000be0a90008503530035
:102ae00006003d000004fd008104fd000205fd001c
:102af0008305fd008703ea00050378000df8a300b5
:102b00000400320060041400e0841c0060051d0015
:102b1000e0851d006022b8007d0320000d38e10033
:102b20008006eb000b0039004433dd00f300b200f7
:102b30008301730039003700848272000d0278002f
:102b4000e10664008b85d1000a85d3008984d30017
:102b50000884d3008703e900f7ff3b00080040002a
:102b6000898048000a0149008b81490004003b002c
:102b700060001000e080180060011900e081190079
:102b80000358a300090032008d8272008482720013
:102b9000610260008301d1000281d3008180d300f3
:102ba0000080d3000603e8001b0037000348a300a1
:102bb00017003a000600e000170034000603e900a1
:102bc0000d00a30000004800818048000201490078
:102bd000838149000348a3000f003a000600e0008b
:102be000090034000603e90000004000818048002d
:102bf000020149008381490001003a000003eb0013
:102c00000348a300f5ff32006022b800020037003d
:102c100084827200618266006efe070003f0a100ec
:102c20000cf0a70003f0a000aafe370064014700e3
:102c30006408e10002003a000df8a300a2fe3a0089
:102c40003200be001201be00a2fe370000000000ec
:102c5000889fbe008a9fbe008c9fbe000404be00f9
:102c60000605be00809fbe00829fbe002f000700a9
:102c7000040678000800be000a01be002b00070011
:102c8000840678004f03be004f02be008d4f7600d1
:102c90007fb0970013003300f0ff2f008b8f6b0085
:102ca00006003b000d0666000c00a7000a00370076
:102cb00007f0a600100020000a003700880f52001d
:102cc000898f5a008a0f5b008b8f5b0003003900ed
:102cd0001000200001003e000000200007f0a700c7
:102ce0000000ea004f06be004f05be004f04be00c4
:102cf00000000600e48240001078a30007003200c4
:102d0000640240001178a3003400be001401be002c
:102d1000040032000330a700000006003500be00aa
:102d20001501be000330a0000000060005ff2700cb
:102d300005826100070032000428e1000100320032
:102d4000240005000600070001003a0044000500c9
:102d50000408050002000700f9ff3a00140005000e
:102d60006f8261008102700085027100850272002d
:102d700000000600800078005002be005003be0034
:102d80004439de00f700b200f37f20000301610048
:102d9000090032000218e10016003a0085017200b5
:102da00083017300838173000008200015003a003e
:102db000400020001300370085017200830173007a
:102dc0008381730005003a0004a8be0006a8be0077
:102dd000100020000b0037000201e900040242004d
:102de00085824a0006034b0087834b000748a300f7
:102df000f9ff32000740a00004a8be0006a8be00ec
:102e0000200020008000980092009800000006003a
:102e1000881f7800030478000300e00007003d00ed
:102e200060001000e080180060011900e0811900c6
:102e300002003b0001f02d000300370004000700f2
:102e400008f0a70003f0a0004f047800000006007f
:102e5000889fbe000082700004027100048271002d
:102e60002400320036432000c50020008383cf00b9
:102e70000a0039000541b1008283cf000700390004
:102e80000541b1008183cf00040039000541b10044
:102e90008083cf00010039000541b10085c3530094
:102ea0006022b800120032000a003b0084827200e7
:102eb000610260008301d1000281d3008180d300d0
:102ec0000080d3000603e8008743e800f7ff3a00dc
:102ed00007003700000040008180480002014900df
:102ee000838149000603e9008743e900f9ff3a00be
:0c2ef000b8fd07004f04be000000060003
:020000040000fa
:102efc007320000078780000787800002e780000ad
:102f0c00206f000020780000787800002e780000f8
:102f1c00007000006f730000696300003a2000002d
:102f2c0078780000787800002e7800002067000088
:102f3c0020000000252a00002e2a00006600000058
:020000040000fa
:102f4c000000fa00c422ef00f09f23000016880056
:102f5c00ca22ef000080eb0030168800d022ef0070
:102f6c0050ff2f0060168800d622ef00f0702d0065
:102f7c0090168800dc22ef0000d02f00c0168800cd
:102f8c00e222ef0050ed2f00f0168800e822ef004f
:102f9c0000ff2f00201788000080fa0000000600b8
:102fac000200fa00000f78009e0078005140880063
:102fbc00e4c2a800e4e2a800e502a800e522a8000b
:102fcc00c500a800c100a800c520a800c120a80009
:102fdc00c540a800c140a800c560a800c160a800f9
:102fec00301780000040880085e0a900d1048000e3
:102ffc00f0ff2800808060000000230001007000ba
:10300c00d00488008de0a8000080fa0000000600c3
:10301c000000fa0041158000f0f72f00010070004d
:10302c0040158800000e200000158800400020008c
:10303c001015880000f0200020158800700020007a
:10304c0030158800aa22ef00a042a800a1e2a80037
:10305c000080fa00000006000400fa00008fbe0099
:10306c00000000001e0090001e00700000f0a70081
:10307c000000ea000000ea004f00de00004078008b
:10308c000081eb008081eb001e0f41005e97490030
:10309c000004e000f3ff3a000080fa000000060094
:1030ac000000fa009094250001002000eaff0700c0
:1030bc00b116800000ff2f00008060003000b300cc
:1030cc00b01688009116800000ff2f000080600071
:1030dc0090168800d022a900d7a2a800400e20008c
:1030ec0001002000dcff0700d7a2a90040ca220083
:1030fc0001002000d8ff0700b116800000ff2f0050
:10310c00008060003000b300b0168800d7a2a80081
:10311c00400e200001002000cfff0700d7a2a9001d
:10312c006047200001002000cbff0700b116800093
:10313c0000ff2f00008060003000b300b016880044
:10314c00d7a2a800400e200001002000c2ff0700fb
:10315c00d7a2a9006047200001002000beff070095
:10316c00b116800000ff2f00008060000010a0004e
:10317c00b0168800d7a2a800400e20000100200045
:10318c00b5ff0700d7a2a90080c2b3002800070032
:10319c0060c0b30026000700c0c0b30024000700c5
:1031ac0010c0b3002200070000c8b30020000700c5
:1031bc000080fa00000006000200fa009016800061
:1031cc00f000b30090168800d062a900d022a800ad
:1031dc00400e2000010020009fff0700d7a2a8008e
:1031ec00400e2000010020009bff0700a01680006d
:1031fc00680060000000e0000300320010c0b30063
:10320c00004f7800020037000040eb00004f7800c0
:10321c00d7a2a900400e2000010020008eff07005d
:10322c00d022a9001e4078000080fa0000000600a1
:10323c000400fa0020479800ae409000014f78003f
:10324c0000000000dcff07000004e000fdff3a0076
:10325c00d062a900d022a900b116800000ff2f0077
:10326c00808060001e00fb004480de00004078007f
:10327c000000fb006f00600001007000b0168800b9
:10328c009116800000ff2f000080600090168800cf
:10329c00d7a2a800400e2000010020006eff0700fe
:1032ac00d7a2a900400e2000010020006aff0700f1
:1032bc00b116800000ff2f00808060002e4090002f
:1032cc000000fb006f00600001007000b016880069
:1032dc00d7a2a800400e2000010020005eff0700ce
:1032ec00d7a2a900400e2000010020005aff0700c1
:1032fc0090168000f000b300901688000080fa0051
:10330c00000006000400fa0020479800ae40900030
:10331c00014f780000000000a7ff07000004e00048
:10332c00fdff3a00d062a800d022a900b11680009f
:10333c0000ff2f00808060001e00fb004480de0038
:10334c00004078000000fb006f006000010070007e
:10335c00b01688009116800000ff2f0000806000de
:10336c0090168800d7a2a800400e20000100200073
:10337c0039ff0700d7a2a900400e20000100200051
:10338c0035ff0700b116800000ff2f008080600021
:10339c002e4090000000fb006f00600001007000e8
:1033ac00b0168800d7a2a800400e20000100200013
:1033bc0029ff0700d7a2a900400e20000100200021
:1033cc0025ff070090168000f000b30090168800cf
:1033dc000080fa00000006000000fa000000000067
:1033ec0075ff07000004e000fdff3a0010c0b300b9
:1033fc008fff070000c8b3008dff07000080fa00a4
:10340c00000006000200fa00004f780011479800f7
:10341c009e4078000174a0001e4090000000fb004c
:10342c004600dd000040780000c0700080ff0700ff
:10343c000080fa00000006000400fa00000f78007b
:10344c002147980032479800be4090002e409000d3
:10345c00ecff0700040037001e00780010407800d5
:10346c00a8ff07001e0fe8001e007800104078002f
:10347c000004e000f8ff3a00b0cd27003100200036
:10348c00f5fe07000080fa00000006001e00fa009e
:10349c00200f9800310f9800420f9800530f98009e
:1034ac00445f9800555f98000000eb00000f780017
:1034bc000e81e8002e089000be089000809fbe0090
:1034cc00de089000811f7800ce089000811f7800e4
:1034dc00007a2900801f78000200780021f707008d
:1034ec00ea875700de5890004e589000c5ff070041
:1034fc00050037000e80e8001e00400010407800e8
:10350c0080ff07001e0fe8000e80e8001e00400040
:10351c00104078000004e000f6ff3a00b0cd270020
:10352c0031002000ccfe07000080fa0000000600ed
:10353c000200fa00000f78009e00780041408800dd
:10354c0010002000100a880010002000300a8800ab
:10355c0010002000500a8800d302a800d322a80033
:10356c00d342a8008420a9008480a9008780a900e8
:10357c00a1048000f0f82f00008060000060a00023
:10358c00a0048800b104800080ff2f000080600040
:10359c000020a000b00488001105800080ff2f00df
:1035ac00008060000020a000100588008c20a8007e
:1035bc008c80a8008f80a8000080fa000000060014
:1035cc000200fa00000f78009e007800614088002d
:1035dc00c021ef00d421ef00703e2000200e8800a7
:1035ec00200e8000300e880000702000400e8800f5
:1035fc0000f02000500e8800cc21ef00ce21ef000f
:10360c0070002000800e880041058000f0ff28002b
:10361c000080600000e0a000400588008960a900df
:10362c00c1e1a8006000b80059000700d116800065
:10363c0000102000008060000000e00009003a004b
:10364c00e092200011c0b300014878006040800077
:10365c000000e00004003200604080000000010027
:10366c00010037009160a8000080fa0000000600fd
:10367c000200fa00a0168000800078000070200084
:10368c00008060004880de00000f7800d1168000ba
:10369c0000102000008060000000e00012003200ea
:1036ac00d0922000104078000004e00007003200a7
:1036bc001e00780080004000208f20000080400019
:1036cc0010007800a00e8800060037001e0078005d
:1036dc0080004000208e2000008040001000780008
:1036ec00a00e8800d6a2a8000080fa0000000600f8
:1036fc000000fa00d116800000102000008060004d
:10370c000000e00006003200d9ff070070772000af
:10371c00400e8800c092200011c0b3000148780010
:10372c000080fa00000006000000fa000070200083
:10373c00400e8800c09220008040eb0001487800c9
:10374c000080fa00000006000000fa00dd22a8004c
:10375c00dd22a900d116800000102000008060003e
:10376c000000e00007003200e09220008040eb00f7
:10377c00014878008960a9009160a80010c0b300ce
:10378c00010037000040eb000080fa00000006004a
:10379c000400fa00881f7800008fbe0018c0b30028
:1037ac006011b8001e00be0043f507000000e000e9
:1037bc0001003d000044eb000804e0001100320061
:1037cc00d09220008040eb000148780018c0b30074
:1037dc0002002000832c24001e00be0036f50700da
:1037ec000000e00001003c000044eb000804e00095
:1037fc001700320000002000812c2400008fbe0036
:10380c0013003700d092200011c0b300014878009b
:10381c001e00be0001f0a200008fbe0018c0b30055
:10382c0002002000832c24001e00be0022f507009d
:10383c000000e00001003c000044eb000804e00044
:10384c000300320000002000812c2400008fbe00f9
:10385c001e01be0022498800334988000200200066
:10386c00a34724001e00be00a9f50700020020009b
:10387c0083242400ccf4070032f507000000780004
:10388c00b00e8800b00e8000c00e8800b00e800014
:10389c00d00e88004f0478000080fa00000006006b
:1038ac000400fa00100798009e00900071408800f8
:1038bc004115800080032000010070004015880035
:1038cc000074200010098800e00e200020098800f8
:1038dc002621ef00803e2000400988004105800031
:1038ec0080ff2f00008060000020a00040058800b1
:1038fc008900a9009100a80000532700000f780050
:10390c0000012000200888000021ef009e007800b4
:10391c00110888008460a9008c60a80005e1a8004b
:10392c000080fa00000006000400fa00889fbe0028
:10393c00300980008000eb0020f507000004be0079
:10394c0030408000cf80de0019f507000200200017
:10395c00a34724006ef507000001be000800be005e
:10396c0034f40700d6f40700404988005149880018
:10397c0040498000514980000df50700008fbe00c2
:10398c0002002000433b24001e00be0060f507002f
:10399c0002002000a347240083f40700004988009c
:1039ac00114988004f04be000080fa000000060098
:1039bc000000fa002621ef000628ef006000b80096
:1039cc0040498800514988006000b80000498800cf
:1039dc00114988000080fa00000006000200fa007d
:1039ec00000f78009e0078008140880000032800ba
:1039fc00f00888001421ef0020a12700d0088800cf
:103a0c008ea0a80086a0a9001fe1a8000080fa00e3
:103a1c00000006000200fa0000002000a15724005c
:103a2c00d0418800e14188006000b800b0418800b6
:103a3c00c141880000002000812c24001042880025
:103a4c002142880000002000812c2c00f0418800cd
:103a5c00014288000000200001f82300504188003a
:103a6c00614188000000200001f0230070418800b3
:103a7c00814188006000b80090418800a141880015
:103a8c0000002000011224003042880041428800ce
:103a9c00208520008040eb00014878003085200014
:103aac008040eb00014878006000b800304188008d
:103abc0041418800e28120006000b8004800070006
:103acc001a68ef00409c2000000f780000022000d4
:103adc00800888000621ef009e00780061088800ad
:103aec0084c0a9008cc0a80011e1a8000080fa00d5
:103afc00000006000200fa000000240071562400a9
:103b0c0080438800914388000000240071562c00eb
:103b1c0060438800714388000000200001102400dd
:103b2c00c0438800d14388000000200001102c0005
:103b3c00a0438800b143880000002000010024004d
:103b4c0000438800114388000000200001f8230086
:103b5c002043880031438800d0cc2c00c1d42300f2
:103b6c0040438800514388000000200001122400cb
:103b7c00e0438800f1438800808820008040eb00ff
:103b8c0001487800908820008040eb0001487800c4
:103b9c006000b800e0428800f142880042852000b5
:103bac006000b8000e00070010c0b3001ae8b700a0
:103bbc00409c2000000f7800000220008008880044
:103bcc000621ef009e0078006108880084c0a900df
:103bdc008cc0a80011e1a8000080fa0000000600cb
:103bec000a00fa00889fbe00200798003107980051
:103bfc00420798004e009000d008900040089000ba
:103c0c000001be002e009000be00900088f307005b
:103c1c0002002000832c2400bdf407000004be0029
:103c2c004e009000600a9000f00a90004e00900048
:103c3c00d0089000400890000001be000400be00b7
:103c4c007bf307000001be000800be00d6f307009e
:103c5c00008fbe0018c0b3006011b8001e00be007b
:103c6c0013f407000000e000010035000044eb00f5
:103c7c000804e000020032006000b800008fbe00b3
:103c8c0018c0b30002002000832c24001e00be00cc
:103c9c0009f407000000e00001003c000044eb00c8
:103cac000804e0000300320000002000812c2400f6
:103cbc00008fbe004e0090003e1878002e10780049
:103ccc004f04be000080fa00000006002400fa0039
:103cdc00889fbe00700f980001179800121798006b
:103cec000040eb00405798001e109000d008900048
:103cfc00400890000001be007e0890008e109000dd
:103d0c004bf3070002002000832c240080f40700f2
:103d1c000004be001e109000600a9000f00a900093
:103d2c001e109000d0089000400890000001be00ca
:103d3c000400be003ef307000001be000800be00f8
:103d4c0099f30700600798007107980018c0b3003a
:103d5c006011b8006e009000fe009000d4f30700d4
:103d6c000000e000010035000044eb000804e00016
:103d7c00030032006000b8006007980071079800db
:103d8c0018c0b30002002000832c24006e009000a9
:103d9c00fe009000c8f307000000e00001003c00aa
:103dac000044eb000804e000040032000000200096
:103dbc00812c240060079800710798001e10900059
:103dcc0050709000e14f5000c7003a001e10900058
:103ddc00407090000004e00012003a001e109000a9
:103dec001000be006e019000fe01900010f3070061
:103dfc0020079800310798001e1090001002be009a
:103e0c001e109000b0009000200090000001be0039
:103e1c000400be0006f30700400798005107980005
:103e2c00120037001e1090001000be000001be00f2
:103e3c006e009000fe009000fdf207002007980035
:103e4c00310798001e10900020029000b0029000e4
:103e5c001e1090001000be000001be000400be0049
:103e6c00f3f2070040079800510798001e109000cd
:103e7c00f0009000600090002e019000be019000b8
:103e8c0023f40700300f9800410f98004e0190006a
:103e9c00de0190002e009000be009000e4f20700be
:103eac0002002000a347240019f407000002be0002
:103ebc001e109000b0089000200890000001be0079
:103ecc000400be0012f407000002be001e10900099
:103edc00d0109000401090000001be000400be0005
:103eec0031f30700500f9800610f98001e109000de
:103efc00900890000008900018c0b3006011b80042
:103f0c006df307000000e00001003c000044eb00f2
:103f1c000804e000150032001e10900060129000a2
:103f2c00f01290001e109000d010900040109000e5
:103f3c000001be000400be00f5f307000004be0043
:103f4c001e109000900890000008900002002000c5
:103f5c00a3472400eef307000001be000800be00da
:103f6c0011f30700008fbe00020037006000b8009c
:103f7c00008fbe001e01be003e089000ce089000cf
:103f8c00acf207005e099000ee099000a9f2070060
:103f9c000002be001e1090009018900000189000b7
:103fac000001be000400be00a2f20700000f980042
:103fbc00110f98001e1090009010900000109000af
:103fcc0018c0b3000e0990009e0990003af3070048
:103fdc000000e00001003c000044eb000804e0009d
:103fec00120032001e1090000011900090119000f1
:103ffc00020f9800130f980018c0b3006011b8009e
:10400c002e009000be00900029f307000000e00095
:10401c00010035000044eb000804e00020003200f1
:10402c0010c0b300405798001d0037001e109000c0
:10403c00b01090002010900018c0b3000e09900032
:10404c009e0990001af307000000e0000100350003
:10405c000044eb000804e000110032001e10900038
:10406c0020119000b0119000020f9800130f9800cf
:10407c0018c0b3006011b8002e009000be00900074
:10408c000df307000000e00001003c000044eb00d1
:10409c000804e0000200320010c0b3004057980042
:1040ac001e1090000e0990009e099000420098008e
:1040bc00530098004e5090000004e00014003a00a9
:1040cc001e109000f0109000601090002e019000d7
:1040dc00be01900057f207001e119000601198006d
:1040ec00711198000a0037001e1190006000b80092
:1040fc0060119800711198001e109000d000900073
:10410c00400090001e1190000019980011199800a1
:10411c001e1090006e019000fe019000220098008d
:10412c00330098001e109000d000900040009000ca
:10413c004f04be000080fa00000006000200fa00e6
:10414c00000f78009e007800e140880091e3a90000
:10415c0091a3a9009183a9009163a800811c800000
:10416c00f08f2f000080600000a0a000801c880051
:10417c0000000000811c8000000e20008080600088
:10418c0000082000808f5000faff3a009223ef00c5
:10419c00805b2000a01c88008119800030002e005c
:1041ac0000806000801988003003a8000003a9007b
:1041bc0030002000701b88006223ef006003a90010
:1041cc006023a9008760a9008f60a8009623ef00e8
:1041dc00f00f2000c01c8800811c8000f08f2f0085
:1041ec0000806000801c88000080fa00000006003f
:1041fc000200fa0060382000000f78001e007800e2
:10420c001000be000080fa00000006000800fa0052
:10421c00100798002207980033079800603620009a
:10422c00000f78001e0078002e019000be01900057
:10423c000288be001e00900000407800f043b200df
:10424c008080fb00f0032000008060004200dd0055
:10425c00021b800031f02f00810061000100700012
:10426c00001b88001e0090004600de000040780015
:10427c007f4060000080fb004b00dd00021b8000d3
:10428c00f17f20008100610001007000001b88009c
:10429c0000022000201b88006e63a8000080fa003a
:1042ac00000006000200fa0060382000000f7800c1
:1042bc001e007800100078000080fa000000060054
:1042cc000600fa00100798002107980060362000bd
:1042dc00000f78001e007800ae00900001087800f6
:1042ec001e00900000407800f043b2008080fb007c
:1042fc00f0032000008060004200dd00021b800003
:10430c0031f02f008100610001007000001b88005b
:10431c001e0090004600de00004078007f406000e8
:10432c000080fb004b00dd00021b8000f17f2000b1
:10433c008100610001007000001b8800000120005a
:10434c00201b88006e63a8000080fa0000000600a5
:10435c000200fa0060382000000f78001e00780080
:10436c00104078000080fa00000006000600fa00f9
:10437c00100798004147980060362000000f780025
:10438c004e4090008000fb001e0078000108780071
:10439c001e00900000407800f043b2008080fb00cb
:1043ac00f0032000008060004200dd00021b800052
:1043bc0031f02f008100610001007000001b8800ab
:1043cc001e0090004600de00004078007f40600038
:1043dc000080fb004b00dd00021b8000f17f200001
:1043ec008100610001007000001b8800800020002b
:1043fc00201b88006e63a8000080fa0000000600f5
:10440c000200fa0060382000000f78001e007800cf
:10441c001000be000080fa00000006000800fa0040
:10442c001007980022079800330798006036200088
:10443c00000f78001e0078002e019000be01900045
:10444c000288be001e00900000407800f043b200cd
:10445c008080fb00f0032000008060004200dd0043
:10446c00021b800031f02f00810061000100700000
:10447c00001b88001e0090004600de000040780003
:10448c007f4060000080fb004b00dd00021b8000c1
:10449c00f17f20008100610001007000001b88008a
:1044ac0000022000201b88006e63a8000080fa0028
:1044bc00000006000000fa000003280090088800a5
:1044cc000a21ef0020a12700700888008ce0a800ca
:1044dc0084e0a90013e1a8000080fa0000000600a7
:1044ec000000fa0096fa0700a0372200acfa070089
:1044fc00ebfa07000000eb000dfc07002042220045
:10450c002ffc070080422200e5fc0700c03022008f
:10451c000aff070077fd0700e6ff0700a03a22001c
:10452c002efd07000000000087fc07000004e000df
:10453c00fdff32006efc07009088200011c0b30014
:10454c00014878001afd07000041eb008040eb00a9
:10455c00e0772900b8fb070012c0b3008040eb00e5
:10456c00f0782900b4fb07000100370000000000c0
:10457c00e0922000104078000004e000fbff3a00bd
:10458c0090408000a14080008042eb0024c0b3002a
:10459c001300200062002000bcfb0700d09220001a
:1045ac00104078000004e00009003200204980002f
:1045bc003149800001f0a2008042eb00b4c0b3008e
:1045cc001300200052002000b0fb0700070037004a
:1045dc0020498000314980008042eb00b4c0b30018
:1045ec001300200052002000a8fb070000498000a7
:1045fc001149800015c0b30074c0b3001300200033
:10460c0062002000a1fb0700d9ff37000000fa0070
:10461c00001c80004200de00f17f200001006000e1
:10462c0061222000810f500027003200c12620009b
:10463c00810f500004003200411f2000810f5000f8
:10464c000f0032002600370041ff07000000fb007e
:10465c00cf80de00d6f107000200200003212400e9
:10466c002bf2070090408800a14088009040800009
:10467c00a14080004285200059fd0700180037003a
:10468c0033ff07000000fb00e10f50000700320071
:10469c00e30f5000080032000000e0000f003a0069
:1046ac00c522a900c542a90006003700c522a800f2
:1046bc00c542a90003003700c522a800c542a800c6
:1046cc00000000000600370021ff07000000fb007f
:1046dc00b04088000000000001003700000000001e
:1046ec000080fa00000006000200fa00004f78007b
:1046fc00114798001e409000e14f500010003a0006
:10470c001e00fb00e50f50000a003200e50f5000c0
:10471c000a003c00e40f500009003a000afc0700b4
:10472c00f3fb07009088200011c0b300014878000b
:10473c0003003700000000000100370000000000fb
:10474c000080fa00000006000000fa00b040800073
:10475c00e20f500019003200e20f500005003c003f
:10476c000000e0000a003200e10f50000a003200a5
:10477c002f003700e40f500022003200e40f5000ed
:10478c0017003500e50f50002000320028003700dc
:10479c00c5c2a900260037002116800000002400a5
:1047ac00008060000000e00002003a00c5c2a800d2
:1047bc001f003700c5c2a9001d003700211680005c
:1047cc0000002400008060000000e00002003a00bd
:1047dc00c5c2a80016003700c5c2a90014003700d6
:1047ec002116800000002400008060000000e00022
:1047fc0002003a00c5c2a8000d003700c5c2a900ce
:10480c000b003700c5c2a900090037002116800033
:10481c0000002400008060000000e00002003a006c
:10482c00c5c2a80002003700c5c2a90000000000e4
:10483c000080fa00000006000000fa000080fa0078
:10484c00000006000000fa000080fa0000000600dc
:020000040000fa
:10485c00120800000800000000000000e208000040
:10486c0020000000020000000000100002042000e4
:10487c0004020100081008000120000000000000e4
:10488c00012010000801080004020400201002009e
:10489c00000000001c0900001400000000000000d3
:1048ac000008000012000000000000001e080000bc
:1048bc006c000000000000001a080000020000005c
:1048cc00000000001c0800000200000000000000b6
:1048dc00020900001a00000002000000686a6c0067
:1048ec00747a4c0000000100000200000400080073
:1048fc0000100000000020002b2d230030000000d1
:10490c008a08000058000000020000006e616e0072
:10491c00004e41004e0069006e660000494e460094
:10492c000000000000000000002440000000000017
:10493c000000000059400000000000000088c30087
:10494c004000000000008400d79741000080e00088
:10495c003779c300414317006e05b500b5b8930015
:10496c0046f5f9003fe903004f384d00321d300089
:10497c00f9487700825a3c00bf737f00dd4f150069
:10498c007500000030090000020000000200000069
:08499c003000000000000000e3
:020000040000fa
:0200000401f009
:04000000f6bf000047
:020000040000fa
:0200000401f009
:04000400ff7f00007a
:020000040000fa
:0200000401f009
:04000800ffff0000f6
:020000040000fa
:0200000401f009
:04001400ffff0000ea
:020000040000fa
:0200000401f009
:04001800ffff0000e6
:00000001FF
